{"contracts/ExamPaperRegistry.sol":{"ExamPaperRegistry":{"abi":[{"inputs":[],"stateMutability":"nonpayable","type":"constructor"},{"anonymous":false,"inputs":[{"indexed":true,"internalType":"uint256","name":"paperId","type":"uint256"},{"indexed":false,"internalType":"enum ExamPaperRegistry.PaperStatus","name":"status","type":"uint8"},{"indexed":true,"internalType":"address","name":"moderator","type":"address"}],"name":"PaperStatusUpdated","type":"event"},{"anonymous":false,"inputs":[{"indexed":true,"internalType":"uint256","name":"paperId","type":"uint256"},{"indexed":true,"internalType":"address","name":"uploader","type":"address"},{"indexed":false,"internalType":"string","name":"paperHash","type":"string"}],"name":"PaperUploaded","type":"event"},{"anonymous":false,"inputs":[{"indexed":true,"internalType":"address","name":"user","type":"address"},{"indexed":false,"internalType":"enum ExamPaperRegistry.Role","name":"role","type":"uint8"}],"name":"UserRoleUpdated","type":"event"},{"inputs":[{"internalType":"uint256","name":"_paperId","type":"uint256"}],"name":"getPaper","outputs":[{"components":[{"internalType":"uint256","name":"id","type":"uint256"},{"internalType":"string","name":"ipfsHash","type":"string"},{"internalType":"address","name":"uploader","type":"address"},{"internalType":"uint256","name":"uploadTime","type":"uint256"},{"internalType":"enum ExamPaperRegistry.PaperStatus","name":"status","type":"uint8"},{"internalType":"address","name":"approver","type":"address"},{"internalType":"uint256","name":"approvalTime","type":"uint256"}],"internalType":"struct ExamPaperRegistry.Paper","name":"","type":"tuple"}],"stateMutability":"view","type":"function"},{"inputs":[{"internalType":"string","name":"","type":"string"}],"name":"hashToId","outputs":[{"internalType":"uint256","name":"","type":"uint256"}],"stateMutability":"view","type":"function"},{"inputs":[],"name":"paperCount","outputs":[{"internalType":"uint256","name":"","type":"uint256"}],"stateMutability":"view","type":"function"},{"inputs":[{"internalType":"uint256","name":"","type":"uint256"}],"name":"papers","outputs":[{"internalType":"uint256","name":"id","type":"uint256"},{"internalType":"string","name":"ipfsHash","type":"string"},{"internalType":"address","name":"uploader","type":"address"},{"internalType":"uint256","name":"uploadTime","type":"uint256"},{"internalType":"enum ExamPaperRegistry.PaperStatus","name":"status","type":"uint8"},{"internalType":"address","name":"approver","type":"address"},{"internalType":"uint256","name":"approvalTime","type":"uint256"}],"stateMutability":"view","type":"function"},{"inputs":[{"internalType":"uint256","name":"_paperId","type":"uint256"},{"internalType":"bool","name":"_approved","type":"bool"}],"name":"reviewPaper","outputs":[],"stateMutability":"nonpayable","type":"function"},{"inputs":[{"internalType":"address","name":"_user","type":"address"},{"internalType":"enum ExamPaperRegistry.Role","name":"_role","type":"uint8"}],"name":"setUserRole","outputs":[],"stateMutability":"nonpayable","type":"function"},{"inputs":[{"internalType":"string","name":"_paperHash","type":"string"}],"name":"uploadPaper","outputs":[],"stateMutability":"nonpayable","type":"function"},{"inputs":[{"internalType":"address","name":"","type":"address"}],"name":"userRoles","outputs":[{"internalType":"enum ExamPaperRegistry.Role","name":"","type":"uint8"}],"stateMutability":"view","type":"function"},{"inputs":[{"internalType":"string","name":"_paperHash","type":"string"}],"name":"verifyPaper","outputs":[{"internalType":"bool","name":"exists","type":"bool"},{"internalType":"uint256","name":"paperId","type":"uint256"}],"stateMutability":"view","type":"function"}],"evm":{"bytecode":{"linkReferences":{},"object":"608060405234801561001057600080fd5b5060046000803373ffffffffffffffffffffffffffffffffffffffff1673ffffffffffffffffffffffffffffffffffffffff16815260200190815260200160002060006101000a81548160ff021916908360048111156100735761007261007d565b5b02179055506100ac565b7f4e487b7100000000000000000000000000000000000000000000000000000000600052602160045260246000fd5b611790806100bb6000396000f3fe608060405234801561001057600080fd5b50600436106100935760003560e01c80635e775a27116100665780635e775a271461013057806374d5e100146101665780638aa651fe146101965780639ad1e412146101c7578063a56c2cb9146101e357610093565b806303a696111461009857806307993f04146100b4578063121b618e146100e45780632e8ad0b914610114575b600080fd5b6100b260048036038101906100ad9190610be5565b610201565b005b6100ce60048036038101906100c99190610c5b565b6102b9565b6040516100db9190610e49565b60405180910390f35b6100fe60048036038101906100f99190610fa0565b61047d565b60405161010b9190610ff8565b60405180910390f35b61012e6004803603810190610129919061104b565b6104ab565b005b61014a60048036038101906101459190610c5b565b6106f5565b60405161015d97969594939291906110f3565b60405180910390f35b610180600480360381019061017b9190611169565b61080c565b60405161018d91906111de565b60405180910390f35b6101b060048036038101906101ab9190610fa0565b61082c565b6040516101be929190611208565b60405180910390f35b6101e160048036038101906101dc9190610fa0565b61085b565b005b6101eb610acd565b6040516101f89190610ff8565b60405180910390f35b806000808473ffffffffffffffffffffffffffffffffffffffff1673ffffffffffffffffffffffffffffffffffffffff16815260200190815260200160002060006101000a81548160ff0219169083600481111561026257610261610d36565b5b02179055508173ffffffffffffffffffffffffffffffffffffffff167f8348234787debc8768e710bb8608864a37ffc99e6bde8bf5358171239895f2b3826040516102ad91906111de565b60405180910390a25050565b6102c1610ad3565b600160008381526020019081526020016000206040518060e0016040529081600082015481526020016001820180546102f990611260565b80601f016020809104026020016040519081016040528092919081815260200182805461032590611260565b80156103725780601f1061034757610100808354040283529160200191610372565b820191906000526020600020905b81548152906001019060200180831161035557829003601f168201915b505050505081526020016002820160009054906101000a900473ffffffffffffffffffffffffffffffffffffffff1673ffffffffffffffffffffffffffffffffffffffff1673ffffffffffffffffffffffffffffffffffffffff168152602001600382015481526020016004820160009054906101000a900460ff166002811115610400576103ff610d36565b5b600281111561041257610411610d36565b5b81526020016004820160019054906101000a900473ffffffffffffffffffffffffffffffffffffffff1673ffffffffffffffffffffffffffffffffffffffff1673ffffffffffffffffffffffffffffffffffffffff1681526020016005820154815250509050919050565b6002818051602081018201805184825260208301602085012081835280955050505050506000915090505481565b6000821180156104bd57506003548211155b6104fc576040517f08c379a00000000000000000000000000000000000000000000000000000000081526004016104f3906112dd565b60405180910390fd5b600060028111156105105761050f610d36565b5b6001600084815260200190815260200160002060040160009054906101000a900460ff16600281111561054657610545610d36565b5b14610586576040517f08c379a000000000000000000000000000000000000000000000000000000000815260040161057d90611349565b60405180910390fd5b80156105cf57600180600084815260200190815260200160002060040160006101000a81548160ff021916908360028111156105c5576105c4610d36565b5b021790555061060f565b60026001600084815260200190815260200160002060040160006101000a81548160ff0219169083600281111561060957610608610d36565b5b02179055505b336001600084815260200190815260200160002060040160016101000a81548173ffffffffffffffffffffffffffffffffffffffff021916908373ffffffffffffffffffffffffffffffffffffffff1602179055504260016000848152602001908152602001600020600501819055503373ffffffffffffffffffffffffffffffffffffffff16827faf8e44af661f5464e15bdbee60c78783c91b144df7e85e5fb11cba0b7c694e9a6001600086815260200190815260200160002060040160009054906101000a900460ff166040516106e99190611369565b60405180910390a35050565b600160205280600052604060002060009150905080600001549080600101805461071e90611260565b80601f016020809104026020016040519081016040528092919081815260200182805461074a90611260565b80156107975780601f1061076c57610100808354040283529160200191610797565b820191906000526020600020905b81548152906001019060200180831161077a57829003601f168201915b5050505050908060020160009054906101000a900473ffffffffffffffffffffffffffffffffffffffff16908060030154908060040160009054906101000a900460ff16908060040160019054906101000a900473ffffffffffffffffffffffffffffffffffffffff16908060050154905087565b60006020528060005260406000206000915054906101000a900460ff1681565b60008060028360405161083f91906113c0565b9081526020016040518091039020549050600081119150915091565b600060028260405161086d91906113c0565b908152602001604051809103902054146108bc576040517f08c379a00000000000000000000000000000000000000000000000000000000081526004016108b390611423565b60405180910390fd5b600360008154809291906108cf90611472565b91905055506040518060e0016040528060035481526020018281526020013373ffffffffffffffffffffffffffffffffffffffff1681526020014281526020016000600281111561092357610922610d36565b5b8152602001600073ffffffffffffffffffffffffffffffffffffffff168152602001600081525060016000600354815260200190815260200160002060008201518160000155602082015181600101908161097e9190611666565b5060408201518160020160006101000a81548173ffffffffffffffffffffffffffffffffffffffff021916908373ffffffffffffffffffffffffffffffffffffffff1602179055506060820151816003015560808201518160040160006101000a81548160ff021916908360028111156109fb576109fa610d36565b5b021790555060a08201518160040160016101000a81548173ffffffffffffffffffffffffffffffffffffffff021916908373ffffffffffffffffffffffffffffffffffffffff16021790555060c08201518160050155905050600354600282604051610a6791906113c0565b9081526020016040518091039020819055503373ffffffffffffffffffffffffffffffffffffffff166003547f38c9abd22c3e5fc53b76f2ea95d1c26f8ad5db0f401fb342657de9e4ac4ace5983604051610ac29190611738565b60405180910390a350565b60035481565b6040518060e001604052806000815260200160608152602001600073ffffffffffffffffffffffffffffffffffffffff1681526020016000815260200160006002811115610b2457610b23610d36565b5b8152602001600073ffffffffffffffffffffffffffffffffffffffff168152602001600081525090565b6000604051905090565b600080fd5b600080fd5b600073ffffffffffffffffffffffffffffffffffffffff82169050919050565b6000610b8d82610b62565b9050919050565b610b9d81610b82565b8114610ba857600080fd5b50565b600081359050610bba81610b94565b92915050565b60058110610bcd57600080fd5b50565b600081359050610bdf81610bc0565b92915050565b60008060408385031215610bfc57610bfb610b58565b5b6000610c0a85828601610bab565b9250506020610c1b85828601610bd0565b9150509250929050565b6000819050919050565b610c3881610c25565b8114610c4357600080fd5b50565b600081359050610c5581610c2f565b92915050565b600060208284031215610c7157610c70610b58565b5b6000610c7f84828501610c46565b91505092915050565b610c9181610c25565b82525050565b600081519050919050565b600082825260208201905092915050565b60005b83811015610cd1578082015181840152602081019050610cb6565b60008484015250505050565b6000601f19601f8301169050919050565b6000610cf982610c97565b610d038185610ca2565b9350610d13818560208601610cb3565b610d1c81610cdd565b840191505092915050565b610d3081610b82565b82525050565b7f4e487b7100000000000000000000000000000000000000000000000000000000600052602160045260246000fd5b60038110610d7657610d75610d36565b5b50565b6000819050610d8782610d65565b919050565b6000610d9782610d79565b9050919050565b610da781610d8c565b82525050565b600060e083016000830151610dc56000860182610c88565b5060208301518482036020860152610ddd8282610cee565b9150506040830151610df26040860182610d27565b506060830151610e056060860182610c88565b506080830151610e186080860182610d9e565b5060a0830151610e2b60a0860182610d27565b5060c0830151610e3e60c0860182610c88565b508091505092915050565b60006020820190508181036000830152610e638184610dad565b905092915050565b600080fd5b600080fd5b7f4e487b7100000000000000000000000000000000000000000000000000000000600052604160045260246000fd5b610ead82610cdd565b810181811067ffffffffffffffff82111715610ecc57610ecb610e75565b5b80604052505050565b6000610edf610b4e565b9050610eeb8282610ea4565b919050565b600067ffffffffffffffff821115610f0b57610f0a610e75565b5b610f1482610cdd565b9050602081019050919050565b82818337600083830152505050565b6000610f43610f3e84610ef0565b610ed5565b905082815260208101848484011115610f5f57610f5e610e70565b5b610f6a848285610f21565b509392505050565b600082601f830112610f8757610f86610e6b565b5b8135610f97848260208601610f30565b91505092915050565b600060208284031215610fb657610fb5610b58565b5b600082013567ffffffffffffffff811115610fd457610fd3610b5d565b5b610fe084828501610f72565b91505092915050565b610ff281610c25565b82525050565b600060208201905061100d6000830184610fe9565b92915050565b60008115159050919050565b61102881611013565b811461103357600080fd5b50565b6000813590506110458161101f565b92915050565b6000806040838503121561106257611061610b58565b5b600061107085828601610c46565b925050602061108185828601611036565b9150509250929050565b600082825260208201905092915050565b60006110a782610c97565b6110b1818561108b565b93506110c1818560208601610cb3565b6110ca81610cdd565b840191505092915050565b6110de81610b82565b82525050565b6110ed81610d8c565b82525050565b600060e082019050611108600083018a610fe9565b818103602083015261111a818961109c565b905061112960408301886110d5565b6111366060830187610fe9565b61114360808301866110e4565b61115060a08301856110d5565b61115d60c0830184610fe9565b98975050505050505050565b60006020828403121561117f5761117e610b58565b5b600061118d84828501610bab565b91505092915050565b600581106111a7576111a6610d36565b5b50565b60008190506111b882611196565b919050565b60006111c8826111aa565b9050919050565b6111d8816111bd565b82525050565b60006020820190506111f360008301846111cf565b92915050565b61120281611013565b82525050565b600060408201905061121d60008301856111f9565b61122a6020830184610fe9565b9392505050565b7f4e487b7100000000000000000000000000000000000000000000000000000000600052602260045260246000fd5b6000600282049050600182168061127857607f821691505b60208210810361128b5761128a611231565b5b50919050565b7f496e76616c696420506170657220494400000000000000000000000000000000600082015250565b60006112c760108361108b565b91506112d282611291565b602082019050919050565b600060208201905081810360008301526112f6816112ba565b9050919050565b7f5061706572206e6f7420696e2070656e64696e67207374617475730000000000600082015250565b6000611333601b8361108b565b915061133e826112fd565b602082019050919050565b6000602082019050818103600083015261136281611326565b9050919050565b600060208201905061137e60008301846110e4565b92915050565b600081905092915050565b600061139a82610c97565b6113a48185611384565b93506113b4818560208601610cb3565b80840191505092915050565b60006113cc828461138f565b915081905092915050565b7f506170657220616c726561647920726567697374657265640000000000000000600082015250565b600061140d60188361108b565b9150611418826113d7565b602082019050919050565b6000602082019050818103600083015261143c81611400565b9050919050565b7f4e487b7100000000000000000000000000000000000000000000000000000000600052601160045260246000fd5b600061147d82610c25565b91507fffffffffffffffffffffffffffffffffffffffffffffffffffffffffffffffff82036114af576114ae611443565b5b600182019050919050565b60008190508160005260206000209050919050565b60006020601f8301049050919050565b600082821b905092915050565b60006008830261151c7fffffffffffffffffffffffffffffffffffffffffffffffffffffffffffffffff826114df565b61152686836114df565b95508019841693508086168417925050509392505050565b6000819050919050565b600061156361155e61155984610c25565b61153e565b610c25565b9050919050565b6000819050919050565b61157d83611548565b6115916115898261156a565b8484546114ec565b825550505050565b600090565b6115a6611599565b6115b1818484611574565b505050565b5b818110156115d5576115ca60008261159e565b6001810190506115b7565b5050565b601f82111561161a576115eb816114ba565b6115f4846114cf565b81016020851015611603578190505b61161761160f856114cf565b8301826115b6565b50505b505050565b600082821c905092915050565b600061163d6000198460080261161f565b1980831691505092915050565b6000611656838361162c565b9150826002028217905092915050565b61166f82610c97565b67ffffffffffffffff81111561168857611687610e75565b5b6116928254611260565b61169d8282856115d9565b600060209050601f8311600181146116d057600084156116be578287015190505b6116c8858261164a565b865550611730565b601f1984166116de866114ba565b60005b82811015611706578489015182556001820191506020850194506020810190506116e1565b86831015611723578489015161171f601f89168261162c565b8355505b6001600288020188555050505b505050505050565b60006020820190508181036000830152611752818461109c565b90509291505056fea264697066735822122003062eebcfa42943a993576de651c3987a4be847f53ecc5f07c397b485fa99fe64736f6c63430008130033","opcodes":"PUSH1 0x80 PUSH1 0x40 MSTORE CALLVALUE DUP1 ISZERO PUSH2 0x10 JUMPI PUSH1 0x0 DUP1 REVERT JUMPDEST POP PUSH1 0x4 PUSH1 0x0 DUP1 CALLER PUSH20 0xFFFFFFFFFFFFFFFFFFFFFFFFFFFFFFFFFFFFFFFF AND PUSH20 0xFFFFFFFFFFFFFFFFFFFFFFFFFFFFFFFFFFFFFFFF AND DUP2 MSTORE PUSH1 0x20 ADD SWAP1 DUP2 MSTORE PUSH1 0x20 ADD PUSH1 0x0 KECCAK256 PUSH1 0x0 PUSH2 0x100 EXP DUP2 SLOAD DUP2 PUSH1 0xFF MUL NOT AND SWAP1 DUP4 PUSH1 0x4 DUP2 GT ISZERO PUSH2 0x73 JUMPI PUSH2 0x72 PUSH2 0x7D JUMP JUMPDEST JUMPDEST MUL OR SWAP1 SSTORE POP PUSH2 0xAC JUMP JUMPDEST PUSH32 0x4E487B7100000000000000000000000000000000000000000000000000000000 PUSH1 0x0 MSTORE PUSH1 0x21 PUSH1 0x4 MSTORE PUSH1 0x24 PUSH1 0x0 REVERT JUMPDEST PUSH2 0x1790 DUP1 PUSH2 0xBB PUSH1 0x0 CODECOPY PUSH1 0x0 RETURN INVALID PUSH1 0x80 PUSH1 0x40 MSTORE CALLVALUE DUP1 ISZERO PUSH2 0x10 JUMPI PUSH1 0x0 DUP1 REVERT JUMPDEST POP PUSH1 0x4 CALLDATASIZE LT PUSH2 0x93 JUMPI PUSH1 0x0 CALLDATALOAD PUSH1 0xE0 SHR DUP1 PUSH4 0x5E775A27 GT PUSH2 0x66 JUMPI DUP1 PUSH4 0x5E775A27 EQ PUSH2 0x130 JUMPI DUP1 PUSH4 0x74D5E100 EQ PUSH2 0x166 JUMPI DUP1 PUSH4 0x8AA651FE EQ PUSH2 0x196 JUMPI DUP1 PUSH4 0x9AD1E412 EQ PUSH2 0x1C7 JUMPI DUP1 PUSH4 0xA56C2CB9 EQ PUSH2 0x1E3 JUMPI PUSH2 0x93 JUMP JUMPDEST DUP1 PUSH4 0x3A69611 EQ PUSH2 0x98 JUMPI DUP1 PUSH4 0x7993F04 EQ PUSH2 0xB4 JUMPI DUP1 PUSH4 0x121B618E EQ PUSH2 0xE4 JUMPI DUP1 PUSH4 0x2E8AD0B9 EQ PUSH2 0x114 JUMPI JUMPDEST PUSH1 0x0 DUP1 REVERT JUMPDEST PUSH2 0xB2 PUSH1 0x4 DUP1 CALLDATASIZE SUB DUP2 ADD SWAP1 PUSH2 0xAD SWAP2 SWAP1 PUSH2 0xBE5 JUMP JUMPDEST PUSH2 0x201 JUMP JUMPDEST STOP JUMPDEST PUSH2 0xCE PUSH1 0x4 DUP1 CALLDATASIZE SUB DUP2 ADD SWAP1 PUSH2 0xC9 SWAP2 SWAP1 PUSH2 0xC5B JUMP JUMPDEST PUSH2 0x2B9 JUMP JUMPDEST PUSH1 0x40 MLOAD PUSH2 0xDB SWAP2 SWAP1 PUSH2 0xE49 JUMP JUMPDEST PUSH1 0x40 MLOAD DUP1 SWAP2 SUB SWAP1 RETURN JUMPDEST PUSH2 0xFE PUSH1 0x4 DUP1 CALLDATASIZE SUB DUP2 ADD SWAP1 PUSH2 0xF9 SWAP2 SWAP1 PUSH2 0xFA0 JUMP JUMPDEST PUSH2 0x47D JUMP JUMPDEST PUSH1 0x40 MLOAD PUSH2 0x10B SWAP2 SWAP1 PUSH2 0xFF8 JUMP JUMPDEST PUSH1 0x40 MLOAD DUP1 SWAP2 SUB SWAP1 RETURN JUMPDEST PUSH2 0x12E PUSH1 0x4 DUP1 CALLDATASIZE SUB DUP2 ADD SWAP1 PUSH2 0x129 SWAP2 SWAP1 PUSH2 0x104B JUMP JUMPDEST PUSH2 0x4AB JUMP JUMPDEST STOP JUMPDEST PUSH2 0x14A PUSH1 0x4 DUP1 CALLDATASIZE SUB DUP2 ADD SWAP1 PUSH2 0x145 SWAP2 SWAP1 PUSH2 0xC5B JUMP JUMPDEST PUSH2 0x6F5 JUMP JUMPDEST PUSH1 0x40 MLOAD PUSH2 0x15D SWAP8 SWAP7 SWAP6 SWAP5 SWAP4 SWAP3 SWAP2 SWAP1 PUSH2 0x10F3 JUMP JUMPDEST PUSH1 0x40 MLOAD DUP1 SWAP2 SUB SWAP1 RETURN JUMPDEST PUSH2 0x180 PUSH1 0x4 DUP1 CALLDATASIZE SUB DUP2 ADD SWAP1 PUSH2 0x17B SWAP2 SWAP1 PUSH2 0x1169 JUMP JUMPDEST PUSH2 0x80C JUMP JUMPDEST PUSH1 0x40 MLOAD PUSH2 0x18D SWAP2 SWAP1 PUSH2 0x11DE JUMP JUMPDEST PUSH1 0x40 MLOAD DUP1 SWAP2 SUB SWAP1 RETURN JUMPDEST PUSH2 0x1B0 PUSH1 0x4 DUP1 CALLDATASIZE SUB DUP2 ADD SWAP1 PUSH2 0x1AB SWAP2 SWAP1 PUSH2 0xFA0 JUMP JUMPDEST PUSH2 0x82C JUMP JUMPDEST PUSH1 0x40 MLOAD PUSH2 0x1BE SWAP3 SWAP2 SWAP1 PUSH2 0x1208 JUMP JUMPDEST PUSH1 0x40 MLOAD DUP1 SWAP2 SUB SWAP1 RETURN JUMPDEST PUSH2 0x1E1 PUSH1 0x4 DUP1 CALLDATASIZE SUB DUP2 ADD SWAP1 PUSH2 0x1DC SWAP2 SWAP1 PUSH2 0xFA0 JUMP JUMPDEST PUSH2 0x85B JUMP JUMPDEST STOP JUMPDEST PUSH2 0x1EB PUSH2 0xACD JUMP JUMPDEST PUSH1 0x40 MLOAD PUSH2 0x1F8 SWAP2 SWAP1 PUSH2 0xFF8 JUMP JUMPDEST PUSH1 0x40 MLOAD DUP1 SWAP2 SUB SWAP1 RETURN JUMPDEST DUP1 PUSH1 0x0 DUP1 DUP5 PUSH20 0xFFFFFFFFFFFFFFFFFFFFFFFFFFFFFFFFFFFFFFFF AND PUSH20 0xFFFFFFFFFFFFFFFFFFFFFFFFFFFFFFFFFFFFFFFF AND DUP2 MSTORE PUSH1 0x20 ADD SWAP1 DUP2 MSTORE PUSH1 0x20 ADD PUSH1 0x0 KECCAK256 PUSH1 0x0 PUSH2 0x100 EXP DUP2 SLOAD DUP2 PUSH1 0xFF MUL NOT AND SWAP1 DUP4 PUSH1 0x4 DUP2 GT ISZERO PUSH2 0x262 JUMPI PUSH2 0x261 PUSH2 0xD36 JUMP JUMPDEST JUMPDEST MUL OR SWAP1 SSTORE POP DUP2 PUSH20 0xFFFFFFFFFFFFFFFFFFFFFFFFFFFFFFFFFFFFFFFF AND PUSH32 0x8348234787DEBC8768E710BB8608864A37FFC99E6BDE8BF5358171239895F2B3 DUP3 PUSH1 0x40 MLOAD PUSH2 0x2AD SWAP2 SWAP1 PUSH2 0x11DE JUMP JUMPDEST PUSH1 0x40 MLOAD DUP1 SWAP2 SUB SWAP1 LOG2 POP POP JUMP JUMPDEST PUSH2 0x2C1 PUSH2 0xAD3 JUMP JUMPDEST PUSH1 0x1 PUSH1 0x0 DUP4 DUP2 MSTORE PUSH1 0x20 ADD SWAP1 DUP2 MSTORE PUSH1 0x20 ADD PUSH1 0x0 KECCAK256 PUSH1 0x40 MLOAD DUP1 PUSH1 0xE0 ADD PUSH1 0x40 MSTORE SWAP1 DUP2 PUSH1 0x0 DUP3 ADD SLOAD DUP2 MSTORE PUSH1 0x20 ADD PUSH1 0x1 DUP3 ADD DUP1 SLOAD PUSH2 0x2F9 SWAP1 PUSH2 0x1260 JUMP JUMPDEST DUP1 PUSH1 0x1F ADD PUSH1 0x20 DUP1 SWAP2 DIV MUL PUSH1 0x20 ADD PUSH1 0x40 MLOAD SWAP1 DUP2 ADD PUSH1 0x40 MSTORE DUP1 SWAP3 SWAP2 SWAP1 DUP2 DUP2 MSTORE PUSH1 0x20 ADD DUP3 DUP1 SLOAD PUSH2 0x325 SWAP1 PUSH2 0x1260 JUMP JUMPDEST DUP1 ISZERO PUSH2 0x372 JUMPI DUP1 PUSH1 0x1F LT PUSH2 0x347 JUMPI PUSH2 0x100 DUP1 DUP4 SLOAD DIV MUL DUP4 MSTORE SWAP2 PUSH1 0x20 ADD SWAP2 PUSH2 0x372 JUMP JUMPDEST DUP3 ADD SWAP2 SWAP1 PUSH1 0x0 MSTORE PUSH1 0x20 PUSH1 0x0 KECCAK256 SWAP1 JUMPDEST DUP2 SLOAD DUP2 MSTORE SWAP1 PUSH1 0x1 ADD SWAP1 PUSH1 0x20 ADD DUP1 DUP4 GT PUSH2 0x355 JUMPI DUP3 SWAP1 SUB PUSH1 0x1F AND DUP3 ADD SWAP2 JUMPDEST POP POP POP POP POP DUP2 MSTORE PUSH1 0x20 ADD PUSH1 0x2 DUP3 ADD PUSH1 0x0 SWAP1 SLOAD SWAP1 PUSH2 0x100 EXP SWAP1 DIV PUSH20 0xFFFFFFFFFFFFFFFFFFFFFFFFFFFFFFFFFFFFFFFF AND PUSH20 0xFFFFFFFFFFFFFFFFFFFFFFFFFFFFFFFFFFFFFFFF AND PUSH20 0xFFFFFFFFFFFFFFFFFFFFFFFFFFFFFFFFFFFFFFFF AND DUP2 MSTORE PUSH1 0x20 ADD PUSH1 0x3 DUP3 ADD SLOAD DUP2 MSTORE PUSH1 0x20 ADD PUSH1 0x4 DUP3 ADD PUSH1 0x0 SWAP1 SLOAD SWAP1 PUSH2 0x100 EXP SWAP1 DIV PUSH1 0xFF AND PUSH1 0x2 DUP2 GT ISZERO PUSH2 0x400 JUMPI PUSH2 0x3FF PUSH2 0xD36 JUMP JUMPDEST JUMPDEST PUSH1 0x2 DUP2 GT ISZERO PUSH2 0x412 JUMPI PUSH2 0x411 PUSH2 0xD36 JUMP JUMPDEST JUMPDEST DUP2 MSTORE PUSH1 0x20 ADD PUSH1 0x4 DUP3 ADD PUSH1 0x1 SWAP1 SLOAD SWAP1 PUSH2 0x100 EXP SWAP1 DIV PUSH20 0xFFFFFFFFFFFFFFFFFFFFFFFFFFFFFFFFFFFFFFFF AND PUSH20 0xFFFFFFFFFFFFFFFFFFFFFFFFFFFFFFFFFFFFFFFF AND PUSH20 0xFFFFFFFFFFFFFFFFFFFFFFFFFFFFFFFFFFFFFFFF AND DUP2 MSTORE PUSH1 0x20 ADD PUSH1 0x5 DUP3 ADD SLOAD DUP2 MSTORE POP POP SWAP1 POP SWAP2 SWAP1 POP JUMP JUMPDEST PUSH1 0x2 DUP2 DUP1 MLOAD PUSH1 0x20 DUP2 ADD DUP3 ADD DUP1 MLOAD DUP5 DUP3 MSTORE PUSH1 0x20 DUP4 ADD PUSH1 0x20 DUP6 ADD KECCAK256 DUP2 DUP4 MSTORE DUP1 SWAP6 POP POP POP POP POP POP PUSH1 0x0 SWAP2 POP SWAP1 POP SLOAD DUP2 JUMP JUMPDEST PUSH1 0x0 DUP3 GT DUP1 ISZERO PUSH2 0x4BD JUMPI POP PUSH1 0x3 SLOAD DUP3 GT ISZERO JUMPDEST PUSH2 0x4FC JUMPI PUSH1 0x40 MLOAD PUSH32 0x8C379A000000000000000000000000000000000000000000000000000000000 DUP2 MSTORE PUSH1 0x4 ADD PUSH2 0x4F3 SWAP1 PUSH2 0x12DD JUMP JUMPDEST PUSH1 0x40 MLOAD DUP1 SWAP2 SUB SWAP1 REVERT JUMPDEST PUSH1 0x0 PUSH1 0x2 DUP2 GT ISZERO PUSH2 0x510 JUMPI PUSH2 0x50F PUSH2 0xD36 JUMP JUMPDEST JUMPDEST PUSH1 0x1 PUSH1 0x0 DUP5 DUP2 MSTORE PUSH1 0x20 ADD SWAP1 DUP2 MSTORE PUSH1 0x20 ADD PUSH1 0x0 KECCAK256 PUSH1 0x4 ADD PUSH1 0x0 SWAP1 SLOAD SWAP1 PUSH2 0x100 EXP SWAP1 DIV PUSH1 0xFF AND PUSH1 0x2 DUP2 GT ISZERO PUSH2 0x546 JUMPI PUSH2 0x545 PUSH2 0xD36 JUMP JUMPDEST JUMPDEST EQ PUSH2 0x586 JUMPI PUSH1 0x40 MLOAD PUSH32 0x8C379A000000000000000000000000000000000000000000000000000000000 DUP2 MSTORE PUSH1 0x4 ADD PUSH2 0x57D SWAP1 PUSH2 0x1349 JUMP JUMPDEST PUSH1 0x40 MLOAD DUP1 SWAP2 SUB SWAP1 REVERT JUMPDEST DUP1 ISZERO PUSH2 0x5CF JUMPI PUSH1 0x1 DUP1 PUSH1 0x0 DUP5 DUP2 MSTORE PUSH1 0x20 ADD SWAP1 DUP2 MSTORE PUSH1 0x20 ADD PUSH1 0x0 KECCAK256 PUSH1 0x4 ADD PUSH1 0x0 PUSH2 0x100 EXP DUP2 SLOAD DUP2 PUSH1 0xFF MUL NOT AND SWAP1 DUP4 PUSH1 0x2 DUP2 GT ISZERO PUSH2 0x5C5 JUMPI PUSH2 0x5C4 PUSH2 0xD36 JUMP JUMPDEST JUMPDEST MUL OR SWAP1 SSTORE POP PUSH2 0x60F JUMP JUMPDEST PUSH1 0x2 PUSH1 0x1 PUSH1 0x0 DUP5 DUP2 MSTORE PUSH1 0x20 ADD SWAP1 DUP2 MSTORE PUSH1 0x20 ADD PUSH1 0x0 KECCAK256 PUSH1 0x4 ADD PUSH1 0x0 PUSH2 0x100 EXP DUP2 SLOAD DUP2 PUSH1 0xFF MUL NOT AND SWAP1 DUP4 PUSH1 0x2 DUP2 GT ISZERO PUSH2 0x609 JUMPI PUSH2 0x608 PUSH2 0xD36 JUMP JUMPDEST JUMPDEST MUL OR SWAP1 SSTORE POP JUMPDEST CALLER PUSH1 0x1 PUSH1 0x0 DUP5 DUP2 MSTORE PUSH1 0x20 ADD SWAP1 DUP2 MSTORE PUSH1 0x20 ADD PUSH1 0x0 KECCAK256 PUSH1 0x4 ADD PUSH1 0x1 PUSH2 0x100 EXP DUP2 SLOAD DUP2 PUSH20 0xFFFFFFFFFFFFFFFFFFFFFFFFFFFFFFFFFFFFFFFF MUL NOT AND SWAP1 DUP4 PUSH20 0xFFFFFFFFFFFFFFFFFFFFFFFFFFFFFFFFFFFFFFFF AND MUL OR SWAP1 SSTORE POP TIMESTAMP PUSH1 0x1 PUSH1 0x0 DUP5 DUP2 MSTORE PUSH1 0x20 ADD SWAP1 DUP2 MSTORE PUSH1 0x20 ADD PUSH1 0x0 KECCAK256 PUSH1 0x5 ADD DUP2 SWAP1 SSTORE POP CALLER PUSH20 0xFFFFFFFFFFFFFFFFFFFFFFFFFFFFFFFFFFFFFFFF AND DUP3 PUSH32 0xAF8E44AF661F5464E15BDBEE60C78783C91B144DF7E85E5FB11CBA0B7C694E9A PUSH1 0x1 PUSH1 0x0 DUP7 DUP2 MSTORE PUSH1 0x20 ADD SWAP1 DUP2 MSTORE PUSH1 0x20 ADD PUSH1 0x0 KECCAK256 PUSH1 0x4 ADD PUSH1 0x0 SWAP1 SLOAD SWAP1 PUSH2 0x100 EXP SWAP1 DIV PUSH1 0xFF AND PUSH1 0x40 MLOAD PUSH2 0x6E9 SWAP2 SWAP1 PUSH2 0x1369 JUMP JUMPDEST PUSH1 0x40 MLOAD DUP1 SWAP2 SUB SWAP1 LOG3 POP POP JUMP JUMPDEST PUSH1 0x1 PUSH1 0x20 MSTORE DUP1 PUSH1 0x0 MSTORE PUSH1 0x40 PUSH1 0x0 KECCAK256 PUSH1 0x0 SWAP2 POP SWAP1 POP DUP1 PUSH1 0x0 ADD SLOAD SWAP1 DUP1 PUSH1 0x1 ADD DUP1 SLOAD PUSH2 0x71E SWAP1 PUSH2 0x1260 JUMP JUMPDEST DUP1 PUSH1 0x1F ADD PUSH1 0x20 DUP1 SWAP2 DIV MUL PUSH1 0x20 ADD PUSH1 0x40 MLOAD SWAP1 DUP2 ADD PUSH1 0x40 MSTORE DUP1 SWAP3 SWAP2 SWAP1 DUP2 DUP2 MSTORE PUSH1 0x20 ADD DUP3 DUP1 SLOAD PUSH2 0x74A SWAP1 PUSH2 0x1260 JUMP JUMPDEST DUP1 ISZERO PUSH2 0x797 JUMPI DUP1 PUSH1 0x1F LT PUSH2 0x76C JUMPI PUSH2 0x100 DUP1 DUP4 SLOAD DIV MUL DUP4 MSTORE SWAP2 PUSH1 0x20 ADD SWAP2 PUSH2 0x797 JUMP JUMPDEST DUP3 ADD SWAP2 SWAP1 PUSH1 0x0 MSTORE PUSH1 0x20 PUSH1 0x0 KECCAK256 SWAP1 JUMPDEST DUP2 SLOAD DUP2 MSTORE SWAP1 PUSH1 0x1 ADD SWAP1 PUSH1 0x20 ADD DUP1 DUP4 GT PUSH2 0x77A JUMPI DUP3 SWAP1 SUB PUSH1 0x1F AND DUP3 ADD SWAP2 JUMPDEST POP POP POP POP POP SWAP1 DUP1 PUSH1 0x2 ADD PUSH1 0x0 SWAP1 SLOAD SWAP1 PUSH2 0x100 EXP SWAP1 DIV PUSH20 0xFFFFFFFFFFFFFFFFFFFFFFFFFFFFFFFFFFFFFFFF AND SWAP1 DUP1 PUSH1 0x3 ADD SLOAD SWAP1 DUP1 PUSH1 0x4 ADD PUSH1 0x0 SWAP1 SLOAD SWAP1 PUSH2 0x100 EXP SWAP1 DIV PUSH1 0xFF AND SWAP1 DUP1 PUSH1 0x4 ADD PUSH1 0x1 SWAP1 SLOAD SWAP1 PUSH2 0x100 EXP SWAP1 DIV PUSH20 0xFFFFFFFFFFFFFFFFFFFFFFFFFFFFFFFFFFFFFFFF AND SWAP1 DUP1 PUSH1 0x5 ADD SLOAD SWAP1 POP DUP8 JUMP JUMPDEST PUSH1 0x0 PUSH1 0x20 MSTORE DUP1 PUSH1 0x0 MSTORE PUSH1 0x40 PUSH1 0x0 KECCAK256 PUSH1 0x0 SWAP2 POP SLOAD SWAP1 PUSH2 0x100 EXP SWAP1 DIV PUSH1 0xFF AND DUP2 JUMP JUMPDEST PUSH1 0x0 DUP1 PUSH1 0x2 DUP4 PUSH1 0x40 MLOAD PUSH2 0x83F SWAP2 SWAP1 PUSH2 0x13C0 JUMP JUMPDEST SWAP1 DUP2 MSTORE PUSH1 0x20 ADD PUSH1 0x40 MLOAD DUP1 SWAP2 SUB SWAP1 KECCAK256 SLOAD SWAP1 POP PUSH1 0x0 DUP2 GT SWAP2 POP SWAP2 POP SWAP2 JUMP JUMPDEST PUSH1 0x0 PUSH1 0x2 DUP3 PUSH1 0x40 MLOAD PUSH2 0x86D SWAP2 SWAP1 PUSH2 0x13C0 JUMP JUMPDEST SWAP1 DUP2 MSTORE PUSH1 0x20 ADD PUSH1 0x40 MLOAD DUP1 SWAP2 SUB SWAP1 KECCAK256 SLOAD EQ PUSH2 0x8BC JUMPI PUSH1 0x40 MLOAD PUSH32 0x8C379A000000000000000000000000000000000000000000000000000000000 DUP2 MSTORE PUSH1 0x4 ADD PUSH2 0x8B3 SWAP1 PUSH2 0x1423 JUMP JUMPDEST PUSH1 0x40 MLOAD DUP1 SWAP2 SUB SWAP1 REVERT JUMPDEST PUSH1 0x3 PUSH1 0x0 DUP2 SLOAD DUP1 SWAP3 SWAP2 SWAP1 PUSH2 0x8CF SWAP1 PUSH2 0x1472 JUMP JUMPDEST SWAP2 SWAP1 POP SSTORE POP PUSH1 0x40 MLOAD DUP1 PUSH1 0xE0 ADD PUSH1 0x40 MSTORE DUP1 PUSH1 0x3 SLOAD DUP2 MSTORE PUSH1 0x20 ADD DUP3 DUP2 MSTORE PUSH1 0x20 ADD CALLER PUSH20 0xFFFFFFFFFFFFFFFFFFFFFFFFFFFFFFFFFFFFFFFF AND DUP2 MSTORE PUSH1 0x20 ADD TIMESTAMP DUP2 MSTORE PUSH1 0x20 ADD PUSH1 0x0 PUSH1 0x2 DUP2 GT ISZERO PUSH2 0x923 JUMPI PUSH2 0x922 PUSH2 0xD36 JUMP JUMPDEST JUMPDEST DUP2 MSTORE PUSH1 0x20 ADD PUSH1 0x0 PUSH20 0xFFFFFFFFFFFFFFFFFFFFFFFFFFFFFFFFFFFFFFFF AND DUP2 MSTORE PUSH1 0x20 ADD PUSH1 0x0 DUP2 MSTORE POP PUSH1 0x1 PUSH1 0x0 PUSH1 0x3 SLOAD DUP2 MSTORE PUSH1 0x20 ADD SWAP1 DUP2 MSTORE PUSH1 0x20 ADD PUSH1 0x0 KECCAK256 PUSH1 0x0 DUP3 ADD MLOAD DUP2 PUSH1 0x0 ADD SSTORE PUSH1 0x20 DUP3 ADD MLOAD DUP2 PUSH1 0x1 ADD SWAP1 DUP2 PUSH2 0x97E SWAP2 SWAP1 PUSH2 0x1666 JUMP JUMPDEST POP PUSH1 0x40 DUP3 ADD MLOAD DUP2 PUSH1 0x2 ADD PUSH1 0x0 PUSH2 0x100 EXP DUP2 SLOAD DUP2 PUSH20 0xFFFFFFFFFFFFFFFFFFFFFFFFFFFFFFFFFFFFFFFF MUL NOT AND SWAP1 DUP4 PUSH20 0xFFFFFFFFFFFFFFFFFFFFFFFFFFFFFFFFFFFFFFFF AND MUL OR SWAP1 SSTORE POP PUSH1 0x60 DUP3 ADD MLOAD DUP2 PUSH1 0x3 ADD SSTORE PUSH1 0x80 DUP3 ADD MLOAD DUP2 PUSH1 0x4 ADD PUSH1 0x0 PUSH2 0x100 EXP DUP2 SLOAD DUP2 PUSH1 0xFF MUL NOT AND SWAP1 DUP4 PUSH1 0x2 DUP2 GT ISZERO PUSH2 0x9FB JUMPI PUSH2 0x9FA PUSH2 0xD36 JUMP JUMPDEST JUMPDEST MUL OR SWAP1 SSTORE POP PUSH1 0xA0 DUP3 ADD MLOAD DUP2 PUSH1 0x4 ADD PUSH1 0x1 PUSH2 0x100 EXP DUP2 SLOAD DUP2 PUSH20 0xFFFFFFFFFFFFFFFFFFFFFFFFFFFFFFFFFFFFFFFF MUL NOT AND SWAP1 DUP4 PUSH20 0xFFFFFFFFFFFFFFFFFFFFFFFFFFFFFFFFFFFFFFFF AND MUL OR SWAP1 SSTORE POP PUSH1 0xC0 DUP3 ADD MLOAD DUP2 PUSH1 0x5 ADD SSTORE SWAP1 POP POP PUSH1 0x3 SLOAD PUSH1 0x2 DUP3 PUSH1 0x40 MLOAD PUSH2 0xA67 SWAP2 SWAP1 PUSH2 0x13C0 JUMP JUMPDEST SWAP1 DUP2 MSTORE PUSH1 0x20 ADD PUSH1 0x40 MLOAD DUP1 SWAP2 SUB SWAP1 KECCAK256 DUP2 SWAP1 SSTORE POP CALLER PUSH20 0xFFFFFFFFFFFFFFFFFFFFFFFFFFFFFFFFFFFFFFFF AND PUSH1 0x3 SLOAD PUSH32 0x38C9ABD22C3E5FC53B76F2EA95D1C26F8AD5DB0F401FB342657DE9E4AC4ACE59 DUP4 PUSH1 0x40 MLOAD PUSH2 0xAC2 SWAP2 SWAP1 PUSH2 0x1738 JUMP JUMPDEST PUSH1 0x40 MLOAD DUP1 SWAP2 SUB SWAP1 LOG3 POP JUMP JUMPDEST PUSH1 0x3 SLOAD DUP2 JUMP JUMPDEST PUSH1 0x40 MLOAD DUP1 PUSH1 0xE0 ADD PUSH1 0x40 MSTORE DUP1 PUSH1 0x0 DUP2 MSTORE PUSH1 0x20 ADD PUSH1 0x60 DUP2 MSTORE PUSH1 0x20 ADD PUSH1 0x0 PUSH20 0xFFFFFFFFFFFFFFFFFFFFFFFFFFFFFFFFFFFFFFFF AND DUP2 MSTORE PUSH1 0x20 ADD PUSH1 0x0 DUP2 MSTORE PUSH1 0x20 ADD PUSH1 0x0 PUSH1 0x2 DUP2 GT ISZERO PUSH2 0xB24 JUMPI PUSH2 0xB23 PUSH2 0xD36 JUMP JUMPDEST JUMPDEST DUP2 MSTORE PUSH1 0x20 ADD PUSH1 0x0 PUSH20 0xFFFFFFFFFFFFFFFFFFFFFFFFFFFFFFFFFFFFFFFF AND DUP2 MSTORE PUSH1 0x20 ADD PUSH1 0x0 DUP2 MSTORE POP SWAP1 JUMP JUMPDEST PUSH1 0x0 PUSH1 0x40 MLOAD SWAP1 POP SWAP1 JUMP JUMPDEST PUSH1 0x0 DUP1 REVERT JUMPDEST PUSH1 0x0 DUP1 REVERT JUMPDEST PUSH1 0x0 PUSH20 0xFFFFFFFFFFFFFFFFFFFFFFFFFFFFFFFFFFFFFFFF DUP3 AND SWAP1 POP SWAP2 SWAP1 POP JUMP JUMPDEST PUSH1 0x0 PUSH2 0xB8D DUP3 PUSH2 0xB62 JUMP JUMPDEST SWAP1 POP SWAP2 SWAP1 POP JUMP JUMPDEST PUSH2 0xB9D DUP2 PUSH2 0xB82 JUMP JUMPDEST DUP2 EQ PUSH2 0xBA8 JUMPI PUSH1 0x0 DUP1 REVERT JUMPDEST POP JUMP JUMPDEST PUSH1 0x0 DUP2 CALLDATALOAD SWAP1 POP PUSH2 0xBBA DUP2 PUSH2 0xB94 JUMP JUMPDEST SWAP3 SWAP2 POP POP JUMP JUMPDEST PUSH1 0x5 DUP2 LT PUSH2 0xBCD JUMPI PUSH1 0x0 DUP1 REVERT JUMPDEST POP JUMP JUMPDEST PUSH1 0x0 DUP2 CALLDATALOAD SWAP1 POP PUSH2 0xBDF DUP2 PUSH2 0xBC0 JUMP JUMPDEST SWAP3 SWAP2 POP POP JUMP JUMPDEST PUSH1 0x0 DUP1 PUSH1 0x40 DUP4 DUP6 SUB SLT ISZERO PUSH2 0xBFC JUMPI PUSH2 0xBFB PUSH2 0xB58 JUMP JUMPDEST JUMPDEST PUSH1 0x0 PUSH2 0xC0A DUP6 DUP3 DUP7 ADD PUSH2 0xBAB JUMP JUMPDEST SWAP3 POP POP PUSH1 0x20 PUSH2 0xC1B DUP6 DUP3 DUP7 ADD PUSH2 0xBD0 JUMP JUMPDEST SWAP2 POP POP SWAP3 POP SWAP3 SWAP1 POP JUMP JUMPDEST PUSH1 0x0 DUP2 SWAP1 POP SWAP2 SWAP1 POP JUMP JUMPDEST PUSH2 0xC38 DUP2 PUSH2 0xC25 JUMP JUMPDEST DUP2 EQ PUSH2 0xC43 JUMPI PUSH1 0x0 DUP1 REVERT JUMPDEST POP JUMP JUMPDEST PUSH1 0x0 DUP2 CALLDATALOAD SWAP1 POP PUSH2 0xC55 DUP2 PUSH2 0xC2F JUMP JUMPDEST SWAP3 SWAP2 POP POP JUMP JUMPDEST PUSH1 0x0 PUSH1 0x20 DUP3 DUP5 SUB SLT ISZERO PUSH2 0xC71 JUMPI PUSH2 0xC70 PUSH2 0xB58 JUMP JUMPDEST JUMPDEST PUSH1 0x0 PUSH2 0xC7F DUP5 DUP3 DUP6 ADD PUSH2 0xC46 JUMP JUMPDEST SWAP2 POP POP SWAP3 SWAP2 POP POP JUMP JUMPDEST PUSH2 0xC91 DUP2 PUSH2 0xC25 JUMP JUMPDEST DUP3 MSTORE POP POP JUMP JUMPDEST PUSH1 0x0 DUP2 MLOAD SWAP1 POP SWAP2 SWAP1 POP JUMP JUMPDEST PUSH1 0x0 DUP3 DUP3 MSTORE PUSH1 0x20 DUP3 ADD SWAP1 POP SWAP3 SWAP2 POP POP JUMP JUMPDEST PUSH1 0x0 JUMPDEST DUP4 DUP2 LT ISZERO PUSH2 0xCD1 JUMPI DUP1 DUP3 ADD MLOAD DUP2 DUP5 ADD MSTORE PUSH1 0x20 DUP2 ADD SWAP1 POP PUSH2 0xCB6 JUMP JUMPDEST PUSH1 0x0 DUP5 DUP5 ADD MSTORE POP POP POP POP JUMP JUMPDEST PUSH1 0x0 PUSH1 0x1F NOT PUSH1 0x1F DUP4 ADD AND SWAP1 POP SWAP2 SWAP1 POP JUMP JUMPDEST PUSH1 0x0 PUSH2 0xCF9 DUP3 PUSH2 0xC97 JUMP JUMPDEST PUSH2 0xD03 DUP2 DUP6 PUSH2 0xCA2 JUMP JUMPDEST SWAP4 POP PUSH2 0xD13 DUP2 DUP6 PUSH1 0x20 DUP7 ADD PUSH2 0xCB3 JUMP JUMPDEST PUSH2 0xD1C DUP2 PUSH2 0xCDD JUMP JUMPDEST DUP5 ADD SWAP2 POP POP SWAP3 SWAP2 POP POP JUMP JUMPDEST PUSH2 0xD30 DUP2 PUSH2 0xB82 JUMP JUMPDEST DUP3 MSTORE POP POP JUMP JUMPDEST PUSH32 0x4E487B7100000000000000000000000000000000000000000000000000000000 PUSH1 0x0 MSTORE PUSH1 0x21 PUSH1 0x4 MSTORE PUSH1 0x24 PUSH1 0x0 REVERT JUMPDEST PUSH1 0x3 DUP2 LT PUSH2 0xD76 JUMPI PUSH2 0xD75 PUSH2 0xD36 JUMP JUMPDEST JUMPDEST POP JUMP JUMPDEST PUSH1 0x0 DUP2 SWAP1 POP PUSH2 0xD87 DUP3 PUSH2 0xD65 JUMP JUMPDEST SWAP2 SWAP1 POP JUMP JUMPDEST PUSH1 0x0 PUSH2 0xD97 DUP3 PUSH2 0xD79 JUMP JUMPDEST SWAP1 POP SWAP2 SWAP1 POP JUMP JUMPDEST PUSH2 0xDA7 DUP2 PUSH2 0xD8C JUMP JUMPDEST DUP3 MSTORE POP POP JUMP JUMPDEST PUSH1 0x0 PUSH1 0xE0 DUP4 ADD PUSH1 0x0 DUP4 ADD MLOAD PUSH2 0xDC5 PUSH1 0x0 DUP7 ADD DUP3 PUSH2 0xC88 JUMP JUMPDEST POP PUSH1 0x20 DUP4 ADD MLOAD DUP5 DUP3 SUB PUSH1 0x20 DUP7 ADD MSTORE PUSH2 0xDDD DUP3 DUP3 PUSH2 0xCEE JUMP JUMPDEST SWAP2 POP POP PUSH1 0x40 DUP4 ADD MLOAD PUSH2 0xDF2 PUSH1 0x40 DUP7 ADD DUP3 PUSH2 0xD27 JUMP JUMPDEST POP PUSH1 0x60 DUP4 ADD MLOAD PUSH2 0xE05 PUSH1 0x60 DUP7 ADD DUP3 PUSH2 0xC88 JUMP JUMPDEST POP PUSH1 0x80 DUP4 ADD MLOAD PUSH2 0xE18 PUSH1 0x80 DUP7 ADD DUP3 PUSH2 0xD9E JUMP JUMPDEST POP PUSH1 0xA0 DUP4 ADD MLOAD PUSH2 0xE2B PUSH1 0xA0 DUP7 ADD DUP3 PUSH2 0xD27 JUMP JUMPDEST POP PUSH1 0xC0 DUP4 ADD MLOAD PUSH2 0xE3E PUSH1 0xC0 DUP7 ADD DUP3 PUSH2 0xC88 JUMP JUMPDEST POP DUP1 SWAP2 POP POP SWAP3 SWAP2 POP POP JUMP JUMPDEST PUSH1 0x0 PUSH1 0x20 DUP3 ADD SWAP1 POP DUP2 DUP2 SUB PUSH1 0x0 DUP4 ADD MSTORE PUSH2 0xE63 DUP2 DUP5 PUSH2 0xDAD JUMP JUMPDEST SWAP1 POP SWAP3 SWAP2 POP POP JUMP JUMPDEST PUSH1 0x0 DUP1 REVERT JUMPDEST PUSH1 0x0 DUP1 REVERT JUMPDEST PUSH32 0x4E487B7100000000000000000000000000000000000000000000000000000000 PUSH1 0x0 MSTORE PUSH1 0x41 PUSH1 0x4 MSTORE PUSH1 0x24 PUSH1 0x0 REVERT JUMPDEST PUSH2 0xEAD DUP3 PUSH2 0xCDD JUMP JUMPDEST DUP2 ADD DUP2 DUP2 LT PUSH8 0xFFFFFFFFFFFFFFFF DUP3 GT OR ISZERO PUSH2 0xECC JUMPI PUSH2 0xECB PUSH2 0xE75 JUMP JUMPDEST JUMPDEST DUP1 PUSH1 0x40 MSTORE POP POP POP JUMP JUMPDEST PUSH1 0x0 PUSH2 0xEDF PUSH2 0xB4E JUMP JUMPDEST SWAP1 POP PUSH2 0xEEB DUP3 DUP3 PUSH2 0xEA4 JUMP JUMPDEST SWAP2 SWAP1 POP JUMP JUMPDEST PUSH1 0x0 PUSH8 0xFFFFFFFFFFFFFFFF DUP3 GT ISZERO PUSH2 0xF0B JUMPI PUSH2 0xF0A PUSH2 0xE75 JUMP JUMPDEST JUMPDEST PUSH2 0xF14 DUP3 PUSH2 0xCDD JUMP JUMPDEST SWAP1 POP PUSH1 0x20 DUP2 ADD SWAP1 POP SWAP2 SWAP1 POP JUMP JUMPDEST DUP3 DUP2 DUP4 CALLDATACOPY PUSH1 0x0 DUP4 DUP4 ADD MSTORE POP POP POP JUMP JUMPDEST PUSH1 0x0 PUSH2 0xF43 PUSH2 0xF3E DUP5 PUSH2 0xEF0 JUMP JUMPDEST PUSH2 0xED5 JUMP JUMPDEST SWAP1 POP DUP3 DUP2 MSTORE PUSH1 0x20 DUP2 ADD DUP5 DUP5 DUP5 ADD GT ISZERO PUSH2 0xF5F JUMPI PUSH2 0xF5E PUSH2 0xE70 JUMP JUMPDEST JUMPDEST PUSH2 0xF6A DUP5 DUP3 DUP6 PUSH2 0xF21 JUMP JUMPDEST POP SWAP4 SWAP3 POP POP POP JUMP JUMPDEST PUSH1 0x0 DUP3 PUSH1 0x1F DUP4 ADD SLT PUSH2 0xF87 JUMPI PUSH2 0xF86 PUSH2 0xE6B JUMP JUMPDEST JUMPDEST DUP2 CALLDATALOAD PUSH2 0xF97 DUP5 DUP3 PUSH1 0x20 DUP7 ADD PUSH2 0xF30 JUMP JUMPDEST SWAP2 POP POP SWAP3 SWAP2 POP POP JUMP JUMPDEST PUSH1 0x0 PUSH1 0x20 DUP3 DUP5 SUB SLT ISZERO PUSH2 0xFB6 JUMPI PUSH2 0xFB5 PUSH2 0xB58 JUMP JUMPDEST JUMPDEST PUSH1 0x0 DUP3 ADD CALLDATALOAD PUSH8 0xFFFFFFFFFFFFFFFF DUP2 GT ISZERO PUSH2 0xFD4 JUMPI PUSH2 0xFD3 PUSH2 0xB5D JUMP JUMPDEST JUMPDEST PUSH2 0xFE0 DUP5 DUP3 DUP6 ADD PUSH2 0xF72 JUMP JUMPDEST SWAP2 POP POP SWAP3 SWAP2 POP POP JUMP JUMPDEST PUSH2 0xFF2 DUP2 PUSH2 0xC25 JUMP JUMPDEST DUP3 MSTORE POP POP JUMP JUMPDEST PUSH1 0x0 PUSH1 0x20 DUP3 ADD SWAP1 POP PUSH2 0x100D PUSH1 0x0 DUP4 ADD DUP5 PUSH2 0xFE9 JUMP JUMPDEST SWAP3 SWAP2 POP POP JUMP JUMPDEST PUSH1 0x0 DUP2 ISZERO ISZERO SWAP1 POP SWAP2 SWAP1 POP JUMP JUMPDEST PUSH2 0x1028 DUP2 PUSH2 0x1013 JUMP JUMPDEST DUP2 EQ PUSH2 0x1033 JUMPI PUSH1 0x0 DUP1 REVERT JUMPDEST POP JUMP JUMPDEST PUSH1 0x0 DUP2 CALLDATALOAD SWAP1 POP PUSH2 0x1045 DUP2 PUSH2 0x101F JUMP JUMPDEST SWAP3 SWAP2 POP POP JUMP JUMPDEST PUSH1 0x0 DUP1 PUSH1 0x40 DUP4 DUP6 SUB SLT ISZERO PUSH2 0x1062 JUMPI PUSH2 0x1061 PUSH2 0xB58 JUMP JUMPDEST JUMPDEST PUSH1 0x0 PUSH2 0x1070 DUP6 DUP3 DUP7 ADD PUSH2 0xC46 JUMP JUMPDEST SWAP3 POP POP PUSH1 0x20 PUSH2 0x1081 DUP6 DUP3 DUP7 ADD PUSH2 0x1036 JUMP JUMPDEST SWAP2 POP POP SWAP3 POP SWAP3 SWAP1 POP JUMP JUMPDEST PUSH1 0x0 DUP3 DUP3 MSTORE PUSH1 0x20 DUP3 ADD SWAP1 POP SWAP3 SWAP2 POP POP JUMP JUMPDEST PUSH1 0x0 PUSH2 0x10A7 DUP3 PUSH2 0xC97 JUMP JUMPDEST PUSH2 0x10B1 DUP2 DUP6 PUSH2 0x108B JUMP JUMPDEST SWAP4 POP PUSH2 0x10C1 DUP2 DUP6 PUSH1 0x20 DUP7 ADD PUSH2 0xCB3 JUMP JUMPDEST PUSH2 0x10CA DUP2 PUSH2 0xCDD JUMP JUMPDEST DUP5 ADD SWAP2 POP POP SWAP3 SWAP2 POP POP JUMP JUMPDEST PUSH2 0x10DE DUP2 PUSH2 0xB82 JUMP JUMPDEST DUP3 MSTORE POP POP JUMP JUMPDEST PUSH2 0x10ED DUP2 PUSH2 0xD8C JUMP JUMPDEST DUP3 MSTORE POP POP JUMP JUMPDEST PUSH1 0x0 PUSH1 0xE0 DUP3 ADD SWAP1 POP PUSH2 0x1108 PUSH1 0x0 DUP4 ADD DUP11 PUSH2 0xFE9 JUMP JUMPDEST DUP2 DUP2 SUB PUSH1 0x20 DUP4 ADD MSTORE PUSH2 0x111A DUP2 DUP10 PUSH2 0x109C JUMP JUMPDEST SWAP1 POP PUSH2 0x1129 PUSH1 0x40 DUP4 ADD DUP9 PUSH2 0x10D5 JUMP JUMPDEST PUSH2 0x1136 PUSH1 0x60 DUP4 ADD DUP8 PUSH2 0xFE9 JUMP JUMPDEST PUSH2 0x1143 PUSH1 0x80 DUP4 ADD DUP7 PUSH2 0x10E4 JUMP JUMPDEST PUSH2 0x1150 PUSH1 0xA0 DUP4 ADD DUP6 PUSH2 0x10D5 JUMP JUMPDEST PUSH2 0x115D PUSH1 0xC0 DUP4 ADD DUP5 PUSH2 0xFE9 JUMP JUMPDEST SWAP9 SWAP8 POP POP POP POP POP POP POP POP JUMP JUMPDEST PUSH1 0x0 PUSH1 0x20 DUP3 DUP5 SUB SLT ISZERO PUSH2 0x117F JUMPI PUSH2 0x117E PUSH2 0xB58 JUMP JUMPDEST JUMPDEST PUSH1 0x0 PUSH2 0x118D DUP5 DUP3 DUP6 ADD PUSH2 0xBAB JUMP JUMPDEST SWAP2 POP POP SWAP3 SWAP2 POP POP JUMP JUMPDEST PUSH1 0x5 DUP2 LT PUSH2 0x11A7 JUMPI PUSH2 0x11A6 PUSH2 0xD36 JUMP JUMPDEST JUMPDEST POP JUMP JUMPDEST PUSH1 0x0 DUP2 SWAP1 POP PUSH2 0x11B8 DUP3 PUSH2 0x1196 JUMP JUMPDEST SWAP2 SWAP1 POP JUMP JUMPDEST PUSH1 0x0 PUSH2 0x11C8 DUP3 PUSH2 0x11AA JUMP JUMPDEST SWAP1 POP SWAP2 SWAP1 POP JUMP JUMPDEST PUSH2 0x11D8 DUP2 PUSH2 0x11BD JUMP JUMPDEST DUP3 MSTORE POP POP JUMP JUMPDEST PUSH1 0x0 PUSH1 0x20 DUP3 ADD SWAP1 POP PUSH2 0x11F3 PUSH1 0x0 DUP4 ADD DUP5 PUSH2 0x11CF JUMP JUMPDEST SWAP3 SWAP2 POP POP JUMP JUMPDEST PUSH2 0x1202 DUP2 PUSH2 0x1013 JUMP JUMPDEST DUP3 MSTORE POP POP JUMP JUMPDEST PUSH1 0x0 PUSH1 0x40 DUP3 ADD SWAP1 POP PUSH2 0x121D PUSH1 0x0 DUP4 ADD DUP6 PUSH2 0x11F9 JUMP JUMPDEST PUSH2 0x122A PUSH1 0x20 DUP4 ADD DUP5 PUSH2 0xFE9 JUMP JUMPDEST SWAP4 SWAP3 POP POP POP JUMP JUMPDEST PUSH32 0x4E487B7100000000000000000000000000000000000000000000000000000000 PUSH1 0x0 MSTORE PUSH1 0x22 PUSH1 0x4 MSTORE PUSH1 0x24 PUSH1 0x0 REVERT JUMPDEST PUSH1 0x0 PUSH1 0x2 DUP3 DIV SWAP1 POP PUSH1 0x1 DUP3 AND DUP1 PUSH2 0x1278 JUMPI PUSH1 0x7F DUP3 AND SWAP2 POP JUMPDEST PUSH1 0x20 DUP3 LT DUP2 SUB PUSH2 0x128B JUMPI PUSH2 0x128A PUSH2 0x1231 JUMP JUMPDEST JUMPDEST POP SWAP2 SWAP1 POP JUMP JUMPDEST PUSH32 0x496E76616C696420506170657220494400000000000000000000000000000000 PUSH1 0x0 DUP3 ADD MSTORE POP JUMP JUMPDEST PUSH1 0x0 PUSH2 0x12C7 PUSH1 0x10 DUP4 PUSH2 0x108B JUMP JUMPDEST SWAP2 POP PUSH2 0x12D2 DUP3 PUSH2 0x1291 JUMP JUMPDEST PUSH1 0x20 DUP3 ADD SWAP1 POP SWAP2 SWAP1 POP JUMP JUMPDEST PUSH1 0x0 PUSH1 0x20 DUP3 ADD SWAP1 POP DUP2 DUP2 SUB PUSH1 0x0 DUP4 ADD MSTORE PUSH2 0x12F6 DUP2 PUSH2 0x12BA JUMP JUMPDEST SWAP1 POP SWAP2 SWAP1 POP JUMP JUMPDEST PUSH32 0x5061706572206E6F7420696E2070656E64696E67207374617475730000000000 PUSH1 0x0 DUP3 ADD MSTORE POP JUMP JUMPDEST PUSH1 0x0 PUSH2 0x1333 PUSH1 0x1B DUP4 PUSH2 0x108B JUMP JUMPDEST SWAP2 POP PUSH2 0x133E DUP3 PUSH2 0x12FD JUMP JUMPDEST PUSH1 0x20 DUP3 ADD SWAP1 POP SWAP2 SWAP1 POP JUMP JUMPDEST PUSH1 0x0 PUSH1 0x20 DUP3 ADD SWAP1 POP DUP2 DUP2 SUB PUSH1 0x0 DUP4 ADD MSTORE PUSH2 0x1362 DUP2 PUSH2 0x1326 JUMP JUMPDEST SWAP1 POP SWAP2 SWAP1 POP JUMP JUMPDEST PUSH1 0x0 PUSH1 0x20 DUP3 ADD SWAP1 POP PUSH2 0x137E PUSH1 0x0 DUP4 ADD DUP5 PUSH2 0x10E4 JUMP JUMPDEST SWAP3 SWAP2 POP POP JUMP JUMPDEST PUSH1 0x0 DUP2 SWAP1 POP SWAP3 SWAP2 POP POP JUMP JUMPDEST PUSH1 0x0 PUSH2 0x139A DUP3 PUSH2 0xC97 JUMP JUMPDEST PUSH2 0x13A4 DUP2 DUP6 PUSH2 0x1384 JUMP JUMPDEST SWAP4 POP PUSH2 0x13B4 DUP2 DUP6 PUSH1 0x20 DUP7 ADD PUSH2 0xCB3 JUMP JUMPDEST DUP1 DUP5 ADD SWAP2 POP POP SWAP3 SWAP2 POP POP JUMP JUMPDEST PUSH1 0x0 PUSH2 0x13CC DUP3 DUP5 PUSH2 0x138F JUMP JUMPDEST SWAP2 POP DUP2 SWAP1 POP SWAP3 SWAP2 POP POP JUMP JUMPDEST PUSH32 0x506170657220616C726561647920726567697374657265640000000000000000 PUSH1 0x0 DUP3 ADD MSTORE POP JUMP JUMPDEST PUSH1 0x0 PUSH2 0x140D PUSH1 0x18 DUP4 PUSH2 0x108B JUMP JUMPDEST SWAP2 POP PUSH2 0x1418 DUP3 PUSH2 0x13D7 JUMP JUMPDEST PUSH1 0x20 DUP3 ADD SWAP1 POP SWAP2 SWAP1 POP JUMP JUMPDEST PUSH1 0x0 PUSH1 0x20 DUP3 ADD SWAP1 POP DUP2 DUP2 SUB PUSH1 0x0 DUP4 ADD MSTORE PUSH2 0x143C DUP2 PUSH2 0x1400 JUMP JUMPDEST SWAP1 POP SWAP2 SWAP1 POP JUMP JUMPDEST PUSH32 0x4E487B7100000000000000000000000000000000000000000000000000000000 PUSH1 0x0 MSTORE PUSH1 0x11 PUSH1 0x4 MSTORE PUSH1 0x24 PUSH1 0x0 REVERT JUMPDEST PUSH1 0x0 PUSH2 0x147D DUP3 PUSH2 0xC25 JUMP JUMPDEST SWAP2 POP PUSH32 0xFFFFFFFFFFFFFFFFFFFFFFFFFFFFFFFFFFFFFFFFFFFFFFFFFFFFFFFFFFFFFFFF DUP3 SUB PUSH2 0x14AF JUMPI PUSH2 0x14AE PUSH2 0x1443 JUMP JUMPDEST JUMPDEST PUSH1 0x1 DUP3 ADD SWAP1 POP SWAP2 SWAP1 POP JUMP JUMPDEST PUSH1 0x0 DUP2 SWAP1 POP DUP2 PUSH1 0x0 MSTORE PUSH1 0x20 PUSH1 0x0 KECCAK256 SWAP1 POP SWAP2 SWAP1 POP JUMP JUMPDEST PUSH1 0x0 PUSH1 0x20 PUSH1 0x1F DUP4 ADD DIV SWAP1 POP SWAP2 SWAP1 POP JUMP JUMPDEST PUSH1 0x0 DUP3 DUP3 SHL SWAP1 POP SWAP3 SWAP2 POP POP JUMP JUMPDEST PUSH1 0x0 PUSH1 0x8 DUP4 MUL PUSH2 0x151C PUSH32 0xFFFFFFFFFFFFFFFFFFFFFFFFFFFFFFFFFFFFFFFFFFFFFFFFFFFFFFFFFFFFFFFF DUP3 PUSH2 0x14DF JUMP JUMPDEST PUSH2 0x1526 DUP7 DUP4 PUSH2 0x14DF JUMP JUMPDEST SWAP6 POP DUP1 NOT DUP5 AND SWAP4 POP DUP1 DUP7 AND DUP5 OR SWAP3 POP POP POP SWAP4 SWAP3 POP POP POP JUMP JUMPDEST PUSH1 0x0 DUP2 SWAP1 POP SWAP2 SWAP1 POP JUMP JUMPDEST PUSH1 0x0 PUSH2 0x1563 PUSH2 0x155E PUSH2 0x1559 DUP5 PUSH2 0xC25 JUMP JUMPDEST PUSH2 0x153E JUMP JUMPDEST PUSH2 0xC25 JUMP JUMPDEST SWAP1 POP SWAP2 SWAP1 POP JUMP JUMPDEST PUSH1 0x0 DUP2 SWAP1 POP SWAP2 SWAP1 POP JUMP JUMPDEST PUSH2 0x157D DUP4 PUSH2 0x1548 JUMP JUMPDEST PUSH2 0x1591 PUSH2 0x1589 DUP3 PUSH2 0x156A JUMP JUMPDEST DUP5 DUP5 SLOAD PUSH2 0x14EC JUMP JUMPDEST DUP3 SSTORE POP POP POP POP JUMP JUMPDEST PUSH1 0x0 SWAP1 JUMP JUMPDEST PUSH2 0x15A6 PUSH2 0x1599 JUMP JUMPDEST PUSH2 0x15B1 DUP2 DUP5 DUP5 PUSH2 0x1574 JUMP JUMPDEST POP POP POP JUMP JUMPDEST JUMPDEST DUP2 DUP2 LT ISZERO PUSH2 0x15D5 JUMPI PUSH2 0x15CA PUSH1 0x0 DUP3 PUSH2 0x159E JUMP JUMPDEST PUSH1 0x1 DUP2 ADD SWAP1 POP PUSH2 0x15B7 JUMP JUMPDEST POP POP JUMP JUMPDEST PUSH1 0x1F DUP3 GT ISZERO PUSH2 0x161A JUMPI PUSH2 0x15EB DUP2 PUSH2 0x14BA JUMP JUMPDEST PUSH2 0x15F4 DUP5 PUSH2 0x14CF JUMP JUMPDEST DUP2 ADD PUSH1 0x20 DUP6 LT ISZERO PUSH2 0x1603 JUMPI DUP2 SWAP1 POP JUMPDEST PUSH2 0x1617 PUSH2 0x160F DUP6 PUSH2 0x14CF JUMP JUMPDEST DUP4 ADD DUP3 PUSH2 0x15B6 JUMP JUMPDEST POP POP JUMPDEST POP POP POP JUMP JUMPDEST PUSH1 0x0 DUP3 DUP3 SHR SWAP1 POP SWAP3 SWAP2 POP POP JUMP JUMPDEST PUSH1 0x0 PUSH2 0x163D PUSH1 0x0 NOT DUP5 PUSH1 0x8 MUL PUSH2 0x161F JUMP JUMPDEST NOT DUP1 DUP4 AND SWAP2 POP POP SWAP3 SWAP2 POP POP JUMP JUMPDEST PUSH1 0x0 PUSH2 0x1656 DUP4 DUP4 PUSH2 0x162C JUMP JUMPDEST SWAP2 POP DUP3 PUSH1 0x2 MUL DUP3 OR SWAP1 POP SWAP3 SWAP2 POP POP JUMP JUMPDEST PUSH2 0x166F DUP3 PUSH2 0xC97 JUMP JUMPDEST PUSH8 0xFFFFFFFFFFFFFFFF DUP2 GT ISZERO PUSH2 0x1688 JUMPI PUSH2 0x1687 PUSH2 0xE75 JUMP JUMPDEST JUMPDEST PUSH2 0x1692 DUP3 SLOAD PUSH2 0x1260 JUMP JUMPDEST PUSH2 0x169D DUP3 DUP3 DUP6 PUSH2 0x15D9 JUMP JUMPDEST PUSH1 0x0 PUSH1 0x20 SWAP1 POP PUSH1 0x1F DUP4 GT PUSH1 0x1 DUP2 EQ PUSH2 0x16D0 JUMPI PUSH1 0x0 DUP5 ISZERO PUSH2 0x16BE JUMPI DUP3 DUP8 ADD MLOAD SWAP1 POP JUMPDEST PUSH2 0x16C8 DUP6 DUP3 PUSH2 0x164A JUMP JUMPDEST DUP7 SSTORE POP PUSH2 0x1730 JUMP JUMPDEST PUSH1 0x1F NOT DUP5 AND PUSH2 0x16DE DUP7 PUSH2 0x14BA JUMP JUMPDEST PUSH1 0x0 JUMPDEST DUP3 DUP2 LT ISZERO PUSH2 0x1706 JUMPI DUP5 DUP10 ADD MLOAD DUP3 SSTORE PUSH1 0x1 DUP3 ADD SWAP2 POP PUSH1 0x20 DUP6 ADD SWAP5 POP PUSH1 0x20 DUP2 ADD SWAP1 POP PUSH2 0x16E1 JUMP JUMPDEST DUP7 DUP4 LT ISZERO PUSH2 0x1723 JUMPI DUP5 DUP10 ADD MLOAD PUSH2 0x171F PUSH1 0x1F DUP10 AND DUP3 PUSH2 0x162C JUMP JUMPDEST DUP4 SSTORE POP JUMPDEST PUSH1 0x1 PUSH1 0x2 DUP9 MUL ADD DUP9 SSTORE POP POP POP JUMPDEST POP POP POP POP POP POP JUMP JUMPDEST PUSH1 0x0 PUSH1 0x20 DUP3 ADD SWAP1 POP DUP2 DUP2 SUB PUSH1 0x0 DUP4 ADD MSTORE PUSH2 0x1752 DUP2 DUP5 PUSH2 0x109C JUMP JUMPDEST SWAP1 POP SWAP3 SWAP2 POP POP JUMP INVALID LOG2 PUSH5 0x6970667358 0x22 SLT KECCAK256 SUB MOD 0x2E 0xEB 0xCF LOG4 0x29 NUMBER 0xA9 SWAP4 JUMPI PUSH14 0xE651C3987A4BE847F53ECC5F07C3 SWAP8 0xB4 DUP6 STATICCALL SWAP10 INVALID PUSH5 0x736F6C6343 STOP ADDMOD SGT STOP CALLER "},"methodIdentifiers":{"getPaper(uint256)":"07993f04","hashToId(string)":"121b618e","paperCount()":"a56c2cb9","papers(uint256)":"5e775a27","reviewPaper(uint256,bool)":"2e8ad0b9","setUserRole(address,uint8)":"03a69611","uploadPaper(string)":"9ad1e412","userRoles(address)":"74d5e100","verifyPaper(string)":"8aa651fe"}}}}}