{"contracts/ExamPaperRegistry.sol":{"ExamPaperRegistry":{"abi":[{"inputs":[],"stateMutability":"nonpayable","type":"constructor"},{"anonymous":false,"inputs":[{"indexed":true,"internalType":"uint256","name":"paperId","type":"uint256"},{"indexed":false,"internalType":"enum ExamPaperRegistry.PaperStatus","name":"status","type":"uint8"},{"indexed":true,"internalType":"address","name":"moderator","type":"address"}],"name":"PaperStatusUpdated","type":"event"},{"anonymous":false,"inputs":[{"indexed":true,"internalType":"uint256","name":"paperId","type":"uint256"},{"indexed":true,"internalType":"address","name":"uploader","type":"address"},{"indexed":false,"internalType":"string","name":"paperHash","type":"string"}],"name":"PaperUploaded","type":"event"},{"anonymous":false,"inputs":[{"indexed":true,"internalType":"address","name":"user","type":"address"},{"indexed":false,"internalType":"enum ExamPaperRegistry.Role","name":"role","type":"uint8"}],"name":"UserRoleUpdated","type":"event"},{"inputs":[{"internalType":"uint256","name":"_paperId","type":"uint256"}],"name":"getPaper","outputs":[{"components":[{"internalType":"uint256","name":"id","type":"uint256"},{"internalType":"string","name":"ipfsHash","type":"string"},{"internalType":"address","name":"uploader","type":"address"},{"internalType":"uint256","name":"uploadTime","type":"uint256"},{"internalType":"enum ExamPaperRegistry.PaperStatus","name":"status","type":"uint8"},{"internalType":"address","name":"approver","type":"address"},{"internalType":"uint256","name":"approvalTime","type":"uint256"}],"internalType":"struct ExamPaperRegistry.Paper","name":"","type":"tuple"}],"stateMutability":"view","type":"function"},{"inputs":[{"internalType":"string","name":"","type":"string"}],"name":"hashToId","outputs":[{"internalType":"uint256","name":"","type":"uint256"}],"stateMutability":"view","type":"function"},{"inputs":[],"name":"paperCount","outputs":[{"internalType":"uint256","name":"","type":"uint256"}],"stateMutability":"view","type":"function"},{"inputs":[{"internalType":"uint256","name":"","type":"uint256"}],"name":"papers","outputs":[{"internalType":"uint256","name":"id","type":"uint256"},{"internalType":"string","name":"ipfsHash","type":"string"},{"internalType":"address","name":"uploader","type":"address"},{"internalType":"uint256","name":"uploadTime","type":"uint256"},{"internalType":"enum ExamPaperRegistry.PaperStatus","name":"status","type":"uint8"},{"internalType":"address","name":"approver","type":"address"},{"internalType":"uint256","name":"approvalTime","type":"uint256"}],"stateMutability":"view","type":"function"},{"inputs":[{"internalType":"uint256","name":"_paperId","type":"uint256"},{"internalType":"bool","name":"_approved","type":"bool"}],"name":"reviewPaper","outputs":[],"stateMutability":"nonpayable","type":"function"},{"inputs":[{"internalType":"address","name":"_user","type":"address"},{"internalType":"enum ExamPaperRegistry.Role","name":"_role","type":"uint8"}],"name":"setUserRole","outputs":[],"stateMutability":"nonpayable","type":"function"},{"inputs":[{"internalType":"string","name":"_paperHash","type":"string"}],"name":"uploadPaper","outputs":[],"stateMutability":"nonpayable","type":"function"},{"inputs":[{"internalType":"address","name":"","type":"address"}],"name":"userRoles","outputs":[{"internalType":"enum ExamPaperRegistry.Role","name":"","type":"uint8"}],"stateMutability":"view","type":"function"}],"evm":{"bytecode":{"linkReferences":{},"object":"608060405234801561001057600080fd5b5060046000803373ffffffffffffffffffffffffffffffffffffffff1673ffffffffffffffffffffffffffffffffffffffff16815260200190815260200160002060006101000a81548160ff021916908360048111156100735761007261007d565b5b02179055506100ac565b7f4e487b7100000000000000000000000000000000000000000000000000000000600052602160045260246000fd5b6121bf806100bb6000396000f3fe608060405234801561001057600080fd5b50600436106100885760003560e01c80635e775a271161005b5780635e775a271461012557806374d5e1001461015b5780639ad1e4121461018b578063a56c2cb9146101a757610088565b806303a696111461008d57806307993f04146100a9578063121b618e146100d95780632e8ad0b914610109575b600080fd5b6100a760048036038101906100a291906114bf565b6101c5565b005b6100c360048036038101906100be9190611535565b6104d6565b6040516100d09190611723565b60405180910390f35b6100f360048036038101906100ee919061187a565b61074c565b60405161010091906118d2565b60405180910390f35b610123600480360381019061011e9190611925565b61077a565b005b61013f600480360381019061013a9190611535565b610c1d565b60405161015297969594939291906119cd565b60405180910390f35b61017560048036038101906101709190611a43565b610d34565b6040516101829190611ab8565b60405180910390f35b6101a560048036038101906101a0919061187a565b610d54565b005b6101af61121f565b6040516101bc91906118d2565b60405180910390f35b60046102066040518060400160405280601281526020017f436865636b696e6720526f6c6520666f723a000000000000000000000000000081525033611225565b6102a26040518060400160405280600a81526020017f5573657220526f6c653a000000000000000000000000000000000000000000008152506000803373ffffffffffffffffffffffffffffffffffffffff1673ffffffffffffffffffffffffffffffffffffffff16815260200190815260200160002060009054906101000a900460ff16600481111561029d5761029c611610565b5b6112c1565b6102f36040518060400160405280600981526020017f52657175697265643a00000000000000000000000000000000000000000000008152508260048111156102ee576102ed611610565b5b6112c1565b80600481111561030657610305611610565b5b6000803373ffffffffffffffffffffffffffffffffffffffff1673ffffffffffffffffffffffffffffffffffffffff16815260200190815260200160002060009054906101000a900460ff16600481111561036457610363611610565b5b14806103de575060048081111561037e5761037d611610565b5b6000803373ffffffffffffffffffffffffffffffffffffffff1673ffffffffffffffffffffffffffffffffffffffff16815260200190815260200160002060009054906101000a900460ff1660048111156103dc576103db611610565b5b145b61041d576040517f08c379a000000000000000000000000000000000000000000000000000000000815260040161041490611b45565b60405180910390fd5b816000808573ffffffffffffffffffffffffffffffffffffffff1673ffffffffffffffffffffffffffffffffffffffff16815260200190815260200160002060006101000a81548160ff0219169083600481111561047e5761047d611610565b5b02179055508273ffffffffffffffffffffffffffffffffffffffff167f8348234787debc8768e710bb8608864a37ffc99e6bde8bf5358171239895f2b3836040516104c99190611ab8565b60405180910390a2505050565b6104de6113a3565b600060048111156104f2576104f1611610565b5b6000803373ffffffffffffffffffffffffffffffffffffffff1673ffffffffffffffffffffffffffffffffffffffff16815260200190815260200160002060009054906101000a900460ff1660048111156105505761054f611610565b5b03610590576040517f08c379a000000000000000000000000000000000000000000000000000000000815260040161058790611bb1565b60405180910390fd5b600160008381526020019081526020016000206040518060e0016040529081600082015481526020016001820180546105c890611c00565b80601f01602080910402602001604051908101604052809291908181526020018280546105f490611c00565b80156106415780601f1061061657610100808354040283529160200191610641565b820191906000526020600020905b81548152906001019060200180831161062457829003601f168201915b505050505081526020016002820160009054906101000a900473ffffffffffffffffffffffffffffffffffffffff1673ffffffffffffffffffffffffffffffffffffffff1673ffffffffffffffffffffffffffffffffffffffff168152602001600382015481526020016004820160009054906101000a900460ff1660028111156106cf576106ce611610565b5b60028111156106e1576106e0611610565b5b81526020016004820160019054906101000a900473ffffffffffffffffffffffffffffffffffffffff1673ffffffffffffffffffffffffffffffffffffffff1673ffffffffffffffffffffffffffffffffffffffff1681526020016005820154815250509050919050565b6002818051602081018201805184825260208301602085012081835280955050505050506000915090505481565b60026107bb6040518060400160405280601281526020017f436865636b696e6720526f6c6520666f723a000000000000000000000000000081525033611225565b6108576040518060400160405280600a81526020017f5573657220526f6c653a000000000000000000000000000000000000000000008152506000803373ffffffffffffffffffffffffffffffffffffffff1673ffffffffffffffffffffffffffffffffffffffff16815260200190815260200160002060009054906101000a900460ff16600481111561085257610851611610565b5b6112c1565b6108a86040518060400160405280600981526020017f52657175697265643a00000000000000000000000000000000000000000000008152508260048111156108a3576108a2611610565b5b6112c1565b8060048111156108bb576108ba611610565b5b6000803373ffffffffffffffffffffffffffffffffffffffff1673ffffffffffffffffffffffffffffffffffffffff16815260200190815260200160002060009054906101000a900460ff16600481111561091957610918611610565b5b1480610993575060048081111561093357610932611610565b5b6000803373ffffffffffffffffffffffffffffffffffffffff1673ffffffffffffffffffffffffffffffffffffffff16815260200190815260200160002060009054906101000a900460ff16600481111561099157610990611610565b5b145b6109d2576040517f08c379a00000000000000000000000000000000000000000000000000000000081526004016109c990611b45565b60405180910390fd5b6000831180156109e457506003548311155b610a23576040517f08c379a0000000000000000000000000000000000000000000000000000000008152600401610a1a90611c7d565b60405180910390fd5b60006002811115610a3757610a36611610565b5b6001600085815260200190815260200160002060040160009054906101000a900460ff166002811115610a6d57610a6c611610565b5b14610aad576040517f08c379a0000000000000000000000000000000000000000000000000000000008152600401610aa490611ce9565b60405180910390fd5b8115610af657600180600085815260200190815260200160002060040160006101000a81548160ff02191690836002811115610aec57610aeb611610565b5b0217905550610b36565b60026001600085815260200190815260200160002060040160006101000a81548160ff02191690836002811115610b3057610b2f611610565b5b02179055505b336001600085815260200190815260200160002060040160016101000a81548173ffffffffffffffffffffffffffffffffffffffff021916908373ffffffffffffffffffffffffffffffffffffffff1602179055504260016000858152602001908152602001600020600501819055503373ffffffffffffffffffffffffffffffffffffffff16837faf8e44af661f5464e15bdbee60c78783c91b144df7e85e5fb11cba0b7c694e9a6001600087815260200190815260200160002060040160009054906101000a900460ff16604051610c109190611d09565b60405180910390a3505050565b6001602052806000526040600020600091509050806000015490806001018054610c4690611c00565b80601f0160208091040260200160405190810160405280929190818152602001828054610c7290611c00565b8015610cbf5780601f10610c9457610100808354040283529160200191610cbf565b820191906000526020600020905b815481529060010190602001808311610ca257829003601f168201915b5050505050908060020160009054906101000a900473ffffffffffffffffffffffffffffffffffffffff16908060030154908060040160009054906101000a900460ff16908060040160019054906101000a900473ffffffffffffffffffffffffffffffffffffffff16908060050154905087565b60006020528060005260406000206000915054906101000a900460ff1681565b6001610d956040518060400160405280601281526020017f436865636b696e6720526f6c6520666f723a000000000000000000000000000081525033611225565b610e316040518060400160405280600a81526020017f5573657220526f6c653a000000000000000000000000000000000000000000008152506000803373ffffffffffffffffffffffffffffffffffffffff1673ffffffffffffffffffffffffffffffffffffffff16815260200190815260200160002060009054906101000a900460ff166004811115610e2c57610e2b611610565b5b6112c1565b610e826040518060400160405280600981526020017f52657175697265643a0000000000000000000000000000000000000000000000815250826004811115610e7d57610e7c611610565b5b6112c1565b806004811115610e9557610e94611610565b5b6000803373ffffffffffffffffffffffffffffffffffffffff1673ffffffffffffffffffffffffffffffffffffffff16815260200190815260200160002060009054906101000a900460ff166004811115610ef357610ef2611610565b5b1480610f6d5750600480811115610f0d57610f0c611610565b5b6000803373ffffffffffffffffffffffffffffffffffffffff1673ffffffffffffffffffffffffffffffffffffffff16815260200190815260200160002060009054906101000a900460ff166004811115610f6b57610f6a611610565b5b145b610fac576040517f08c379a0000000000000000000000000000000000000000000000000000000008152600401610fa390611b45565b60405180910390fd5b6000600283604051610fbe9190611d60565b9081526020016040518091039020541461100d576040517f08c379a000000000000000000000000000000000000000000000000000000000815260040161100490611dc3565b60405180910390fd5b6003600081548092919061102090611e12565b91905055506040518060e0016040528060035481526020018381526020013373ffffffffffffffffffffffffffffffffffffffff1681526020014281526020016000600281111561107457611073611610565b5b8152602001600073ffffffffffffffffffffffffffffffffffffffff16815260200160008152506001600060035481526020019081526020016000206000820151816000015560208201518160010190816110cf9190612006565b5060408201518160020160006101000a81548173ffffffffffffffffffffffffffffffffffffffff021916908373ffffffffffffffffffffffffffffffffffffffff1602179055506060820151816003015560808201518160040160006101000a81548160ff0219169083600281111561114c5761114b611610565b5b021790555060a08201518160040160016101000a81548173ffffffffffffffffffffffffffffffffffffffff021916908373ffffffffffffffffffffffffffffffffffffffff16021790555060c082015181600501559050506003546002836040516111b89190611d60565b9081526020016040518091039020819055503373ffffffffffffffffffffffffffffffffffffffff166003547f38c9abd22c3e5fc53b76f2ea95d1c26f8ad5db0f401fb342657de9e4ac4ace598460405161121391906120d8565b60405180910390a35050565b60035481565b6112bd828260405160240161123b9291906120fa565b6040516020818303038152906040527f319af333000000000000000000000000000000000000000000000000000000007bffffffffffffffffffffffffffffffffffffffffffffffffffffffff19166020820180517bffffffffffffffffffffffffffffffffffffffffffffffffffffffff838183161783525050505061135d565b5050565b61135982826040516024016112d792919061212a565b6040516020818303038152906040527fb60e72cc000000000000000000000000000000000000000000000000000000007bffffffffffffffffffffffffffffffffffffffffffffffffffffffff19166020820180517bffffffffffffffffffffffffffffffffffffffffffffffffffffffff838183161783525050505061135d565b5050565b6113748161136c611377611398565b63ffffffff16565b50565b60006a636f6e736f6c652e6c6f679050600080835160208501845afa505050565b61141e819050919050565b6040518060e001604052806000815260200160608152602001600073ffffffffffffffffffffffffffffffffffffffff16815260200160008152602001600060028111156113f4576113f3611610565b5b8152602001600073ffffffffffffffffffffffffffffffffffffffff168152602001600081525090565b61142661215a565b565b6000604051905090565b600080fd5b600080fd5b600073ffffffffffffffffffffffffffffffffffffffff82169050919050565b60006114678261143c565b9050919050565b6114778161145c565b811461148257600080fd5b50565b6000813590506114948161146e565b92915050565b600581106114a757600080fd5b50565b6000813590506114b98161149a565b92915050565b600080604083850312156114d6576114d5611432565b5b60006114e485828601611485565b92505060206114f5858286016114aa565b9150509250929050565b6000819050919050565b611512816114ff565b811461151d57600080fd5b50565b60008135905061152f81611509565b92915050565b60006020828403121561154b5761154a611432565b5b600061155984828501611520565b91505092915050565b61156b816114ff565b82525050565b600081519050919050565b600082825260208201905092915050565b60005b838110156115ab578082015181840152602081019050611590565b60008484015250505050565b6000601f19601f8301169050919050565b60006115d382611571565b6115dd818561157c565b93506115ed81856020860161158d565b6115f6816115b7565b840191505092915050565b61160a8161145c565b82525050565b7f4e487b7100000000000000000000000000000000000000000000000000000000600052602160045260246000fd5b600381106116505761164f611610565b5b50565b60008190506116618261163f565b919050565b600061167182611653565b9050919050565b61168181611666565b82525050565b600060e08301600083015161169f6000860182611562565b50602083015184820360208601526116b782826115c8565b91505060408301516116cc6040860182611601565b5060608301516116df6060860182611562565b5060808301516116f26080860182611678565b5060a083015161170560a0860182611601565b5060c083015161171860c0860182611562565b508091505092915050565b6000602082019050818103600083015261173d8184611687565b905092915050565b600080fd5b600080fd5b7f4e487b7100000000000000000000000000000000000000000000000000000000600052604160045260246000fd5b611787826115b7565b810181811067ffffffffffffffff821117156117a6576117a561174f565b5b80604052505050565b60006117b9611428565b90506117c5828261177e565b919050565b600067ffffffffffffffff8211156117e5576117e461174f565b5b6117ee826115b7565b9050602081019050919050565b82818337600083830152505050565b600061181d611818846117ca565b6117af565b9050828152602081018484840111156118395761183861174a565b5b6118448482856117fb565b509392505050565b600082601f83011261186157611860611745565b5b813561187184826020860161180a565b91505092915050565b6000602082840312156118905761188f611432565b5b600082013567ffffffffffffffff8111156118ae576118ad611437565b5b6118ba8482850161184c565b91505092915050565b6118cc816114ff565b82525050565b60006020820190506118e760008301846118c3565b92915050565b60008115159050919050565b611902816118ed565b811461190d57600080fd5b50565b60008135905061191f816118f9565b92915050565b6000806040838503121561193c5761193b611432565b5b600061194a85828601611520565b925050602061195b85828601611910565b9150509250929050565b600082825260208201905092915050565b600061198182611571565b61198b8185611965565b935061199b81856020860161158d565b6119a4816115b7565b840191505092915050565b6119b88161145c565b82525050565b6119c781611666565b82525050565b600060e0820190506119e2600083018a6118c3565b81810360208301526119f48189611976565b9050611a0360408301886119af565b611a1060608301876118c3565b611a1d60808301866119be565b611a2a60a08301856119af565b611a3760c08301846118c3565b98975050505050505050565b600060208284031215611a5957611a58611432565b5b6000611a6784828501611485565b91505092915050565b60058110611a8157611a80611610565b5b50565b6000819050611a9282611a70565b919050565b6000611aa282611a84565b9050919050565b611ab281611a97565b82525050565b6000602082019050611acd6000830184611aa9565b92915050565b7f556e617574686f72697a65643a20496e73756666696369656e7420707269766960008201527f6c65676573000000000000000000000000000000000000000000000000000000602082015250565b6000611b2f602583611965565b9150611b3a82611ad3565b604082019050919050565b60006020820190508181036000830152611b5e81611b22565b9050919050565b7f556e617574686f72697a65640000000000000000000000000000000000000000600082015250565b6000611b9b600c83611965565b9150611ba682611b65565b602082019050919050565b60006020820190508181036000830152611bca81611b8e565b9050919050565b7f4e487b7100000000000000000000000000000000000000000000000000000000600052602260045260246000fd5b60006002820490506001821680611c1857607f821691505b602082108103611c2b57611c2a611bd1565b5b50919050565b7f496e76616c696420506170657220494400000000000000000000000000000000600082015250565b6000611c67601083611965565b9150611c7282611c31565b602082019050919050565b60006020820190508181036000830152611c9681611c5a565b9050919050565b7f5061706572206e6f7420696e2070656e64696e67207374617475730000000000600082015250565b6000611cd3601b83611965565b9150611cde82611c9d565b602082019050919050565b60006020820190508181036000830152611d0281611cc6565b9050919050565b6000602082019050611d1e60008301846119be565b92915050565b600081905092915050565b6000611d3a82611571565b611d448185611d24565b9350611d5481856020860161158d565b80840191505092915050565b6000611d6c8284611d2f565b915081905092915050565b7f506170657220616c726561647920726567697374657265640000000000000000600082015250565b6000611dad601883611965565b9150611db882611d77565b602082019050919050565b60006020820190508181036000830152611ddc81611da0565b9050919050565b7f4e487b7100000000000000000000000000000000000000000000000000000000600052601160045260246000fd5b6000611e1d826114ff565b91507fffffffffffffffffffffffffffffffffffffffffffffffffffffffffffffffff8203611e4f57611e4e611de3565b5b600182019050919050565b60008190508160005260206000209050919050565b60006020601f8301049050919050565b600082821b905092915050565b600060088302611ebc7fffffffffffffffffffffffffffffffffffffffffffffffffffffffffffffffff82611e7f565b611ec68683611e7f565b95508019841693508086168417925050509392505050565b6000819050919050565b6000611f03611efe611ef9846114ff565b611ede565b6114ff565b9050919050565b6000819050919050565b611f1d83611ee8565b611f31611f2982611f0a565b848454611e8c565b825550505050565b600090565b611f46611f39565b611f51818484611f14565b505050565b5b81811015611f7557611f6a600082611f3e565b600181019050611f57565b5050565b601f821115611fba57611f8b81611e5a565b611f9484611e6f565b81016020851015611fa3578190505b611fb7611faf85611e6f565b830182611f56565b50505b505050565b600082821c905092915050565b6000611fdd60001984600802611fbf565b1980831691505092915050565b6000611ff68383611fcc565b9150826002028217905092915050565b61200f82611571565b67ffffffffffffffff8111156120285761202761174f565b5b6120328254611c00565b61203d828285611f79565b600060209050601f831160018114612070576000841561205e578287015190505b6120688582611fea565b8655506120d0565b601f19841661207e86611e5a565b60005b828110156120a657848901518255600182019150602085019450602081019050612081565b868310156120c357848901516120bf601f891682611fcc565b8355505b6001600288020188555050505b505050505050565b600060208201905081810360008301526120f28184611976565b905092915050565b600060408201905081810360008301526121148185611976565b905061212360208301846119af565b9392505050565b600060408201905081810360008301526121448185611976565b905061215360208301846118c3565b9392505050565b7f4e487b7100000000000000000000000000000000000000000000000000000000600052605160045260246000fdfea264697066735822122051b56e0addf71d1e50eeaafe14797541abe2b9512fc92d369310ecf1c01aadc164736f6c63430008130033","opcodes":"PUSH1 0x80 PUSH1 0x40 MSTORE CALLVALUE DUP1 ISZERO PUSH2 0x10 JUMPI PUSH1 0x0 DUP1 REVERT JUMPDEST POP PUSH1 0x4 PUSH1 0x0 DUP1 CALLER PUSH20 0xFFFFFFFFFFFFFFFFFFFFFFFFFFFFFFFFFFFFFFFF AND PUSH20 0xFFFFFFFFFFFFFFFFFFFFFFFFFFFFFFFFFFFFFFFF AND DUP2 MSTORE PUSH1 0x20 ADD SWAP1 DUP2 MSTORE PUSH1 0x20 ADD PUSH1 0x0 KECCAK256 PUSH1 0x0 PUSH2 0x100 EXP DUP2 SLOAD DUP2 PUSH1 0xFF MUL NOT AND SWAP1 DUP4 PUSH1 0x4 DUP2 GT ISZERO PUSH2 0x73 JUMPI PUSH2 0x72 PUSH2 0x7D JUMP JUMPDEST JUMPDEST MUL OR SWAP1 SSTORE POP PUSH2 0xAC JUMP JUMPDEST PUSH32 0x4E487B7100000000000000000000000000000000000000000000000000000000 PUSH1 0x0 MSTORE PUSH1 0x21 PUSH1 0x4 MSTORE PUSH1 0x24 PUSH1 0x0 REVERT JUMPDEST PUSH2 0x21BF DUP1 PUSH2 0xBB PUSH1 0x0 CODECOPY PUSH1 0x0 RETURN INVALID PUSH1 0x80 PUSH1 0x40 MSTORE CALLVALUE DUP1 ISZERO PUSH2 0x10 JUMPI PUSH1 0x0 DUP1 REVERT JUMPDEST POP PUSH1 0x4 CALLDATASIZE LT PUSH2 0x88 JUMPI PUSH1 0x0 CALLDATALOAD PUSH1 0xE0 SHR DUP1 PUSH4 0x5E775A27 GT PUSH2 0x5B JUMPI DUP1 PUSH4 0x5E775A27 EQ PUSH2 0x125 JUMPI DUP1 PUSH4 0x74D5E100 EQ PUSH2 0x15B JUMPI DUP1 PUSH4 0x9AD1E412 EQ PUSH2 0x18B JUMPI DUP1 PUSH4 0xA56C2CB9 EQ PUSH2 0x1A7 JUMPI PUSH2 0x88 JUMP JUMPDEST DUP1 PUSH4 0x3A69611 EQ PUSH2 0x8D JUMPI DUP1 PUSH4 0x7993F04 EQ PUSH2 0xA9 JUMPI DUP1 PUSH4 0x121B618E EQ PUSH2 0xD9 JUMPI DUP1 PUSH4 0x2E8AD0B9 EQ PUSH2 0x109 JUMPI JUMPDEST PUSH1 0x0 DUP1 REVERT JUMPDEST PUSH2 0xA7 PUSH1 0x4 DUP1 CALLDATASIZE SUB DUP2 ADD SWAP1 PUSH2 0xA2 SWAP2 SWAP1 PUSH2 0x14BF JUMP JUMPDEST PUSH2 0x1C5 JUMP JUMPDEST STOP JUMPDEST PUSH2 0xC3 PUSH1 0x4 DUP1 CALLDATASIZE SUB DUP2 ADD SWAP1 PUSH2 0xBE SWAP2 SWAP1 PUSH2 0x1535 JUMP JUMPDEST PUSH2 0x4D6 JUMP JUMPDEST PUSH1 0x40 MLOAD PUSH2 0xD0 SWAP2 SWAP1 PUSH2 0x1723 JUMP JUMPDEST PUSH1 0x40 MLOAD DUP1 SWAP2 SUB SWAP1 RETURN JUMPDEST PUSH2 0xF3 PUSH1 0x4 DUP1 CALLDATASIZE SUB DUP2 ADD SWAP1 PUSH2 0xEE SWAP2 SWAP1 PUSH2 0x187A JUMP JUMPDEST PUSH2 0x74C JUMP JUMPDEST PUSH1 0x40 MLOAD PUSH2 0x100 SWAP2 SWAP1 PUSH2 0x18D2 JUMP JUMPDEST PUSH1 0x40 MLOAD DUP1 SWAP2 SUB SWAP1 RETURN JUMPDEST PUSH2 0x123 PUSH1 0x4 DUP1 CALLDATASIZE SUB DUP2 ADD SWAP1 PUSH2 0x11E SWAP2 SWAP1 PUSH2 0x1925 JUMP JUMPDEST PUSH2 0x77A JUMP JUMPDEST STOP JUMPDEST PUSH2 0x13F PUSH1 0x4 DUP1 CALLDATASIZE SUB DUP2 ADD SWAP1 PUSH2 0x13A SWAP2 SWAP1 PUSH2 0x1535 JUMP JUMPDEST PUSH2 0xC1D JUMP JUMPDEST PUSH1 0x40 MLOAD PUSH2 0x152 SWAP8 SWAP7 SWAP6 SWAP5 SWAP4 SWAP3 SWAP2 SWAP1 PUSH2 0x19CD JUMP JUMPDEST PUSH1 0x40 MLOAD DUP1 SWAP2 SUB SWAP1 RETURN JUMPDEST PUSH2 0x175 PUSH1 0x4 DUP1 CALLDATASIZE SUB DUP2 ADD SWAP1 PUSH2 0x170 SWAP2 SWAP1 PUSH2 0x1A43 JUMP JUMPDEST PUSH2 0xD34 JUMP JUMPDEST PUSH1 0x40 MLOAD PUSH2 0x182 SWAP2 SWAP1 PUSH2 0x1AB8 JUMP JUMPDEST PUSH1 0x40 MLOAD DUP1 SWAP2 SUB SWAP1 RETURN JUMPDEST PUSH2 0x1A5 PUSH1 0x4 DUP1 CALLDATASIZE SUB DUP2 ADD SWAP1 PUSH2 0x1A0 SWAP2 SWAP1 PUSH2 0x187A JUMP JUMPDEST PUSH2 0xD54 JUMP JUMPDEST STOP JUMPDEST PUSH2 0x1AF PUSH2 0x121F JUMP JUMPDEST PUSH1 0x40 MLOAD PUSH2 0x1BC SWAP2 SWAP1 PUSH2 0x18D2 JUMP JUMPDEST PUSH1 0x40 MLOAD DUP1 SWAP2 SUB SWAP1 RETURN JUMPDEST PUSH1 0x4 PUSH2 0x206 PUSH1 0x40 MLOAD DUP1 PUSH1 0x40 ADD PUSH1 0x40 MSTORE DUP1 PUSH1 0x12 DUP2 MSTORE PUSH1 0x20 ADD PUSH32 0x436865636B696E6720526F6C6520666F723A0000000000000000000000000000 DUP2 MSTORE POP CALLER PUSH2 0x1225 JUMP JUMPDEST PUSH2 0x2A2 PUSH1 0x40 MLOAD DUP1 PUSH1 0x40 ADD PUSH1 0x40 MSTORE DUP1 PUSH1 0xA DUP2 MSTORE PUSH1 0x20 ADD PUSH32 0x5573657220526F6C653A00000000000000000000000000000000000000000000 DUP2 MSTORE POP PUSH1 0x0 DUP1 CALLER PUSH20 0xFFFFFFFFFFFFFFFFFFFFFFFFFFFFFFFFFFFFFFFF AND PUSH20 0xFFFFFFFFFFFFFFFFFFFFFFFFFFFFFFFFFFFFFFFF AND DUP2 MSTORE PUSH1 0x20 ADD SWAP1 DUP2 MSTORE PUSH1 0x20 ADD PUSH1 0x0 KECCAK256 PUSH1 0x0 SWAP1 SLOAD SWAP1 PUSH2 0x100 EXP SWAP1 DIV PUSH1 0xFF AND PUSH1 0x4 DUP2 GT ISZERO PUSH2 0x29D JUMPI PUSH2 0x29C PUSH2 0x1610 JUMP JUMPDEST JUMPDEST PUSH2 0x12C1 JUMP JUMPDEST PUSH2 0x2F3 PUSH1 0x40 MLOAD DUP1 PUSH1 0x40 ADD PUSH1 0x40 MSTORE DUP1 PUSH1 0x9 DUP2 MSTORE PUSH1 0x20 ADD PUSH32 0x52657175697265643A0000000000000000000000000000000000000000000000 DUP2 MSTORE POP DUP3 PUSH1 0x4 DUP2 GT ISZERO PUSH2 0x2EE JUMPI PUSH2 0x2ED PUSH2 0x1610 JUMP JUMPDEST JUMPDEST PUSH2 0x12C1 JUMP JUMPDEST DUP1 PUSH1 0x4 DUP2 GT ISZERO PUSH2 0x306 JUMPI PUSH2 0x305 PUSH2 0x1610 JUMP JUMPDEST JUMPDEST PUSH1 0x0 DUP1 CALLER PUSH20 0xFFFFFFFFFFFFFFFFFFFFFFFFFFFFFFFFFFFFFFFF AND PUSH20 0xFFFFFFFFFFFFFFFFFFFFFFFFFFFFFFFFFFFFFFFF AND DUP2 MSTORE PUSH1 0x20 ADD SWAP1 DUP2 MSTORE PUSH1 0x20 ADD PUSH1 0x0 KECCAK256 PUSH1 0x0 SWAP1 SLOAD SWAP1 PUSH2 0x100 EXP SWAP1 DIV PUSH1 0xFF AND PUSH1 0x4 DUP2 GT ISZERO PUSH2 0x364 JUMPI PUSH2 0x363 PUSH2 0x1610 JUMP JUMPDEST JUMPDEST EQ DUP1 PUSH2 0x3DE JUMPI POP PUSH1 0x4 DUP1 DUP2 GT ISZERO PUSH2 0x37E JUMPI PUSH2 0x37D PUSH2 0x1610 JUMP JUMPDEST JUMPDEST PUSH1 0x0 DUP1 CALLER PUSH20 0xFFFFFFFFFFFFFFFFFFFFFFFFFFFFFFFFFFFFFFFF AND PUSH20 0xFFFFFFFFFFFFFFFFFFFFFFFFFFFFFFFFFFFFFFFF AND DUP2 MSTORE PUSH1 0x20 ADD SWAP1 DUP2 MSTORE PUSH1 0x20 ADD PUSH1 0x0 KECCAK256 PUSH1 0x0 SWAP1 SLOAD SWAP1 PUSH2 0x100 EXP SWAP1 DIV PUSH1 0xFF AND PUSH1 0x4 DUP2 GT ISZERO PUSH2 0x3DC JUMPI PUSH2 0x3DB PUSH2 0x1610 JUMP JUMPDEST JUMPDEST EQ JUMPDEST PUSH2 0x41D JUMPI PUSH1 0x40 MLOAD PUSH32 0x8C379A000000000000000000000000000000000000000000000000000000000 DUP2 MSTORE PUSH1 0x4 ADD PUSH2 0x414 SWAP1 PUSH2 0x1B45 JUMP JUMPDEST PUSH1 0x40 MLOAD DUP1 SWAP2 SUB SWAP1 REVERT JUMPDEST DUP2 PUSH1 0x0 DUP1 DUP6 PUSH20 0xFFFFFFFFFFFFFFFFFFFFFFFFFFFFFFFFFFFFFFFF AND PUSH20 0xFFFFFFFFFFFFFFFFFFFFFFFFFFFFFFFFFFFFFFFF AND DUP2 MSTORE PUSH1 0x20 ADD SWAP1 DUP2 MSTORE PUSH1 0x20 ADD PUSH1 0x0 KECCAK256 PUSH1 0x0 PUSH2 0x100 EXP DUP2 SLOAD DUP2 PUSH1 0xFF MUL NOT AND SWAP1 DUP4 PUSH1 0x4 DUP2 GT ISZERO PUSH2 0x47E JUMPI PUSH2 0x47D PUSH2 0x1610 JUMP JUMPDEST JUMPDEST MUL OR SWAP1 SSTORE POP DUP3 PUSH20 0xFFFFFFFFFFFFFFFFFFFFFFFFFFFFFFFFFFFFFFFF AND PUSH32 0x8348234787DEBC8768E710BB8608864A37FFC99E6BDE8BF5358171239895F2B3 DUP4 PUSH1 0x40 MLOAD PUSH2 0x4C9 SWAP2 SWAP1 PUSH2 0x1AB8 JUMP JUMPDEST PUSH1 0x40 MLOAD DUP1 SWAP2 SUB SWAP1 LOG2 POP POP POP JUMP JUMPDEST PUSH2 0x4DE PUSH2 0x13A3 JUMP JUMPDEST PUSH1 0x0 PUSH1 0x4 DUP2 GT ISZERO PUSH2 0x4F2 JUMPI PUSH2 0x4F1 PUSH2 0x1610 JUMP JUMPDEST JUMPDEST PUSH1 0x0 DUP1 CALLER PUSH20 0xFFFFFFFFFFFFFFFFFFFFFFFFFFFFFFFFFFFFFFFF AND PUSH20 0xFFFFFFFFFFFFFFFFFFFFFFFFFFFFFFFFFFFFFFFF AND DUP2 MSTORE PUSH1 0x20 ADD SWAP1 DUP2 MSTORE PUSH1 0x20 ADD PUSH1 0x0 KECCAK256 PUSH1 0x0 SWAP1 SLOAD SWAP1 PUSH2 0x100 EXP SWAP1 DIV PUSH1 0xFF AND PUSH1 0x4 DUP2 GT ISZERO PUSH2 0x550 JUMPI PUSH2 0x54F PUSH2 0x1610 JUMP JUMPDEST JUMPDEST SUB PUSH2 0x590 JUMPI PUSH1 0x40 MLOAD PUSH32 0x8C379A000000000000000000000000000000000000000000000000000000000 DUP2 MSTORE PUSH1 0x4 ADD PUSH2 0x587 SWAP1 PUSH2 0x1BB1 JUMP JUMPDEST PUSH1 0x40 MLOAD DUP1 SWAP2 SUB SWAP1 REVERT JUMPDEST PUSH1 0x1 PUSH1 0x0 DUP4 DUP2 MSTORE PUSH1 0x20 ADD SWAP1 DUP2 MSTORE PUSH1 0x20 ADD PUSH1 0x0 KECCAK256 PUSH1 0x40 MLOAD DUP1 PUSH1 0xE0 ADD PUSH1 0x40 MSTORE SWAP1 DUP2 PUSH1 0x0 DUP3 ADD SLOAD DUP2 MSTORE PUSH1 0x20 ADD PUSH1 0x1 DUP3 ADD DUP1 SLOAD PUSH2 0x5C8 SWAP1 PUSH2 0x1C00 JUMP JUMPDEST DUP1 PUSH1 0x1F ADD PUSH1 0x20 DUP1 SWAP2 DIV MUL PUSH1 0x20 ADD PUSH1 0x40 MLOAD SWAP1 DUP2 ADD PUSH1 0x40 MSTORE DUP1 SWAP3 SWAP2 SWAP1 DUP2 DUP2 MSTORE PUSH1 0x20 ADD DUP3 DUP1 SLOAD PUSH2 0x5F4 SWAP1 PUSH2 0x1C00 JUMP JUMPDEST DUP1 ISZERO PUSH2 0x641 JUMPI DUP1 PUSH1 0x1F LT PUSH2 0x616 JUMPI PUSH2 0x100 DUP1 DUP4 SLOAD DIV MUL DUP4 MSTORE SWAP2 PUSH1 0x20 ADD SWAP2 PUSH2 0x641 JUMP JUMPDEST DUP3 ADD SWAP2 SWAP1 PUSH1 0x0 MSTORE PUSH1 0x20 PUSH1 0x0 KECCAK256 SWAP1 JUMPDEST DUP2 SLOAD DUP2 MSTORE SWAP1 PUSH1 0x1 ADD SWAP1 PUSH1 0x20 ADD DUP1 DUP4 GT PUSH2 0x624 JUMPI DUP3 SWAP1 SUB PUSH1 0x1F AND DUP3 ADD SWAP2 JUMPDEST POP POP POP POP POP DUP2 MSTORE PUSH1 0x20 ADD PUSH1 0x2 DUP3 ADD PUSH1 0x0 SWAP1 SLOAD SWAP1 PUSH2 0x100 EXP SWAP1 DIV PUSH20 0xFFFFFFFFFFFFFFFFFFFFFFFFFFFFFFFFFFFFFFFF AND PUSH20 0xFFFFFFFFFFFFFFFFFFFFFFFFFFFFFFFFFFFFFFFF AND PUSH20 0xFFFFFFFFFFFFFFFFFFFFFFFFFFFFFFFFFFFFFFFF AND DUP2 MSTORE PUSH1 0x20 ADD PUSH1 0x3 DUP3 ADD SLOAD DUP2 MSTORE PUSH1 0x20 ADD PUSH1 0x4 DUP3 ADD PUSH1 0x0 SWAP1 SLOAD SWAP1 PUSH2 0x100 EXP SWAP1 DIV PUSH1 0xFF AND PUSH1 0x2 DUP2 GT ISZERO PUSH2 0x6CF JUMPI PUSH2 0x6CE PUSH2 0x1610 JUMP JUMPDEST JUMPDEST PUSH1 0x2 DUP2 GT ISZERO PUSH2 0x6E1 JUMPI PUSH2 0x6E0 PUSH2 0x1610 JUMP JUMPDEST JUMPDEST DUP2 MSTORE PUSH1 0x20 ADD PUSH1 0x4 DUP3 ADD PUSH1 0x1 SWAP1 SLOAD SWAP1 PUSH2 0x100 EXP SWAP1 DIV PUSH20 0xFFFFFFFFFFFFFFFFFFFFFFFFFFFFFFFFFFFFFFFF AND PUSH20 0xFFFFFFFFFFFFFFFFFFFFFFFFFFFFFFFFFFFFFFFF AND PUSH20 0xFFFFFFFFFFFFFFFFFFFFFFFFFFFFFFFFFFFFFFFF AND DUP2 MSTORE PUSH1 0x20 ADD PUSH1 0x5 DUP3 ADD SLOAD DUP2 MSTORE POP POP SWAP1 POP SWAP2 SWAP1 POP JUMP JUMPDEST PUSH1 0x2 DUP2 DUP1 MLOAD PUSH1 0x20 DUP2 ADD DUP3 ADD DUP1 MLOAD DUP5 DUP3 MSTORE PUSH1 0x20 DUP4 ADD PUSH1 0x20 DUP6 ADD KECCAK256 DUP2 DUP4 MSTORE DUP1 SWAP6 POP POP POP POP POP POP PUSH1 0x0 SWAP2 POP SWAP1 POP SLOAD DUP2 JUMP JUMPDEST PUSH1 0x2 PUSH2 0x7BB PUSH1 0x40 MLOAD DUP1 PUSH1 0x40 ADD PUSH1 0x40 MSTORE DUP1 PUSH1 0x12 DUP2 MSTORE PUSH1 0x20 ADD PUSH32 0x436865636B696E6720526F6C6520666F723A0000000000000000000000000000 DUP2 MSTORE POP CALLER PUSH2 0x1225 JUMP JUMPDEST PUSH2 0x857 PUSH1 0x40 MLOAD DUP1 PUSH1 0x40 ADD PUSH1 0x40 MSTORE DUP1 PUSH1 0xA DUP2 MSTORE PUSH1 0x20 ADD PUSH32 0x5573657220526F6C653A00000000000000000000000000000000000000000000 DUP2 MSTORE POP PUSH1 0x0 DUP1 CALLER PUSH20 0xFFFFFFFFFFFFFFFFFFFFFFFFFFFFFFFFFFFFFFFF AND PUSH20 0xFFFFFFFFFFFFFFFFFFFFFFFFFFFFFFFFFFFFFFFF AND DUP2 MSTORE PUSH1 0x20 ADD SWAP1 DUP2 MSTORE PUSH1 0x20 ADD PUSH1 0x0 KECCAK256 PUSH1 0x0 SWAP1 SLOAD SWAP1 PUSH2 0x100 EXP SWAP1 DIV PUSH1 0xFF AND PUSH1 0x4 DUP2 GT ISZERO PUSH2 0x852 JUMPI PUSH2 0x851 PUSH2 0x1610 JUMP JUMPDEST JUMPDEST PUSH2 0x12C1 JUMP JUMPDEST PUSH2 0x8A8 PUSH1 0x40 MLOAD DUP1 PUSH1 0x40 ADD PUSH1 0x40 MSTORE DUP1 PUSH1 0x9 DUP2 MSTORE PUSH1 0x20 ADD PUSH32 0x52657175697265643A0000000000000000000000000000000000000000000000 DUP2 MSTORE POP DUP3 PUSH1 0x4 DUP2 GT ISZERO PUSH2 0x8A3 JUMPI PUSH2 0x8A2 PUSH2 0x1610 JUMP JUMPDEST JUMPDEST PUSH2 0x12C1 JUMP JUMPDEST DUP1 PUSH1 0x4 DUP2 GT ISZERO PUSH2 0x8BB JUMPI PUSH2 0x8BA PUSH2 0x1610 JUMP JUMPDEST JUMPDEST PUSH1 0x0 DUP1 CALLER PUSH20 0xFFFFFFFFFFFFFFFFFFFFFFFFFFFFFFFFFFFFFFFF AND PUSH20 0xFFFFFFFFFFFFFFFFFFFFFFFFFFFFFFFFFFFFFFFF AND DUP2 MSTORE PUSH1 0x20 ADD SWAP1 DUP2 MSTORE PUSH1 0x20 ADD PUSH1 0x0 KECCAK256 PUSH1 0x0 SWAP1 SLOAD SWAP1 PUSH2 0x100 EXP SWAP1 DIV PUSH1 0xFF AND PUSH1 0x4 DUP2 GT ISZERO PUSH2 0x919 JUMPI PUSH2 0x918 PUSH2 0x1610 JUMP JUMPDEST JUMPDEST EQ DUP1 PUSH2 0x993 JUMPI POP PUSH1 0x4 DUP1 DUP2 GT ISZERO PUSH2 0x933 JUMPI PUSH2 0x932 PUSH2 0x1610 JUMP JUMPDEST JUMPDEST PUSH1 0x0 DUP1 CALLER PUSH20 0xFFFFFFFFFFFFFFFFFFFFFFFFFFFFFFFFFFFFFFFF AND PUSH20 0xFFFFFFFFFFFFFFFFFFFFFFFFFFFFFFFFFFFFFFFF AND DUP2 MSTORE PUSH1 0x20 ADD SWAP1 DUP2 MSTORE PUSH1 0x20 ADD PUSH1 0x0 KECCAK256 PUSH1 0x0 SWAP1 SLOAD SWAP1 PUSH2 0x100 EXP SWAP1 DIV PUSH1 0xFF AND PUSH1 0x4 DUP2 GT ISZERO PUSH2 0x991 JUMPI PUSH2 0x990 PUSH2 0x1610 JUMP JUMPDEST JUMPDEST EQ JUMPDEST PUSH2 0x9D2 JUMPI PUSH1 0x40 MLOAD PUSH32 0x8C379A000000000000000000000000000000000000000000000000000000000 DUP2 MSTORE PUSH1 0x4 ADD PUSH2 0x9C9 SWAP1 PUSH2 0x1B45 JUMP JUMPDEST PUSH1 0x40 MLOAD DUP1 SWAP2 SUB SWAP1 REVERT JUMPDEST PUSH1 0x0 DUP4 GT DUP1 ISZERO PUSH2 0x9E4 JUMPI POP PUSH1 0x3 SLOAD DUP4 GT ISZERO JUMPDEST PUSH2 0xA23 JUMPI PUSH1 0x40 MLOAD PUSH32 0x8C379A000000000000000000000000000000000000000000000000000000000 DUP2 MSTORE PUSH1 0x4 ADD PUSH2 0xA1A SWAP1 PUSH2 0x1C7D JUMP JUMPDEST PUSH1 0x40 MLOAD DUP1 SWAP2 SUB SWAP1 REVERT JUMPDEST PUSH1 0x0 PUSH1 0x2 DUP2 GT ISZERO PUSH2 0xA37 JUMPI PUSH2 0xA36 PUSH2 0x1610 JUMP JUMPDEST JUMPDEST PUSH1 0x1 PUSH1 0x0 DUP6 DUP2 MSTORE PUSH1 0x20 ADD SWAP1 DUP2 MSTORE PUSH1 0x20 ADD PUSH1 0x0 KECCAK256 PUSH1 0x4 ADD PUSH1 0x0 SWAP1 SLOAD SWAP1 PUSH2 0x100 EXP SWAP1 DIV PUSH1 0xFF AND PUSH1 0x2 DUP2 GT ISZERO PUSH2 0xA6D JUMPI PUSH2 0xA6C PUSH2 0x1610 JUMP JUMPDEST JUMPDEST EQ PUSH2 0xAAD JUMPI PUSH1 0x40 MLOAD PUSH32 0x8C379A000000000000000000000000000000000000000000000000000000000 DUP2 MSTORE PUSH1 0x4 ADD PUSH2 0xAA4 SWAP1 PUSH2 0x1CE9 JUMP JUMPDEST PUSH1 0x40 MLOAD DUP1 SWAP2 SUB SWAP1 REVERT JUMPDEST DUP2 ISZERO PUSH2 0xAF6 JUMPI PUSH1 0x1 DUP1 PUSH1 0x0 DUP6 DUP2 MSTORE PUSH1 0x20 ADD SWAP1 DUP2 MSTORE PUSH1 0x20 ADD PUSH1 0x0 KECCAK256 PUSH1 0x4 ADD PUSH1 0x0 PUSH2 0x100 EXP DUP2 SLOAD DUP2 PUSH1 0xFF MUL NOT AND SWAP1 DUP4 PUSH1 0x2 DUP2 GT ISZERO PUSH2 0xAEC JUMPI PUSH2 0xAEB PUSH2 0x1610 JUMP JUMPDEST JUMPDEST MUL OR SWAP1 SSTORE POP PUSH2 0xB36 JUMP JUMPDEST PUSH1 0x2 PUSH1 0x1 PUSH1 0x0 DUP6 DUP2 MSTORE PUSH1 0x20 ADD SWAP1 DUP2 MSTORE PUSH1 0x20 ADD PUSH1 0x0 KECCAK256 PUSH1 0x4 ADD PUSH1 0x0 PUSH2 0x100 EXP DUP2 SLOAD DUP2 PUSH1 0xFF MUL NOT AND SWAP1 DUP4 PUSH1 0x2 DUP2 GT ISZERO PUSH2 0xB30 JUMPI PUSH2 0xB2F PUSH2 0x1610 JUMP JUMPDEST JUMPDEST MUL OR SWAP1 SSTORE POP JUMPDEST CALLER PUSH1 0x1 PUSH1 0x0 DUP6 DUP2 MSTORE PUSH1 0x20 ADD SWAP1 DUP2 MSTORE PUSH1 0x20 ADD PUSH1 0x0 KECCAK256 PUSH1 0x4 ADD PUSH1 0x1 PUSH2 0x100 EXP DUP2 SLOAD DUP2 PUSH20 0xFFFFFFFFFFFFFFFFFFFFFFFFFFFFFFFFFFFFFFFF MUL NOT AND SWAP1 DUP4 PUSH20 0xFFFFFFFFFFFFFFFFFFFFFFFFFFFFFFFFFFFFFFFF AND MUL OR SWAP1 SSTORE POP TIMESTAMP PUSH1 0x1 PUSH1 0x0 DUP6 DUP2 MSTORE PUSH1 0x20 ADD SWAP1 DUP2 MSTORE PUSH1 0x20 ADD PUSH1 0x0 KECCAK256 PUSH1 0x5 ADD DUP2 SWAP1 SSTORE POP CALLER PUSH20 0xFFFFFFFFFFFFFFFFFFFFFFFFFFFFFFFFFFFFFFFF AND DUP4 PUSH32 0xAF8E44AF661F5464E15BDBEE60C78783C91B144DF7E85E5FB11CBA0B7C694E9A PUSH1 0x1 PUSH1 0x0 DUP8 DUP2 MSTORE PUSH1 0x20 ADD SWAP1 DUP2 MSTORE PUSH1 0x20 ADD PUSH1 0x0 KECCAK256 PUSH1 0x4 ADD PUSH1 0x0 SWAP1 SLOAD SWAP1 PUSH2 0x100 EXP SWAP1 DIV PUSH1 0xFF AND PUSH1 0x40 MLOAD PUSH2 0xC10 SWAP2 SWAP1 PUSH2 0x1D09 JUMP JUMPDEST PUSH1 0x40 MLOAD DUP1 SWAP2 SUB SWAP1 LOG3 POP POP POP JUMP JUMPDEST PUSH1 0x1 PUSH1 0x20 MSTORE DUP1 PUSH1 0x0 MSTORE PUSH1 0x40 PUSH1 0x0 KECCAK256 PUSH1 0x0 SWAP2 POP SWAP1 POP DUP1 PUSH1 0x0 ADD SLOAD SWAP1 DUP1 PUSH1 0x1 ADD DUP1 SLOAD PUSH2 0xC46 SWAP1 PUSH2 0x1C00 JUMP JUMPDEST DUP1 PUSH1 0x1F ADD PUSH1 0x20 DUP1 SWAP2 DIV MUL PUSH1 0x20 ADD PUSH1 0x40 MLOAD SWAP1 DUP2 ADD PUSH1 0x40 MSTORE DUP1 SWAP3 SWAP2 SWAP1 DUP2 DUP2 MSTORE PUSH1 0x20 ADD DUP3 DUP1 SLOAD PUSH2 0xC72 SWAP1 PUSH2 0x1C00 JUMP JUMPDEST DUP1 ISZERO PUSH2 0xCBF JUMPI DUP1 PUSH1 0x1F LT PUSH2 0xC94 JUMPI PUSH2 0x100 DUP1 DUP4 SLOAD DIV MUL DUP4 MSTORE SWAP2 PUSH1 0x20 ADD SWAP2 PUSH2 0xCBF JUMP JUMPDEST DUP3 ADD SWAP2 SWAP1 PUSH1 0x0 MSTORE PUSH1 0x20 PUSH1 0x0 KECCAK256 SWAP1 JUMPDEST DUP2 SLOAD DUP2 MSTORE SWAP1 PUSH1 0x1 ADD SWAP1 PUSH1 0x20 ADD DUP1 DUP4 GT PUSH2 0xCA2 JUMPI DUP3 SWAP1 SUB PUSH1 0x1F AND DUP3 ADD SWAP2 JUMPDEST POP POP POP POP POP SWAP1 DUP1 PUSH1 0x2 ADD PUSH1 0x0 SWAP1 SLOAD SWAP1 PUSH2 0x100 EXP SWAP1 DIV PUSH20 0xFFFFFFFFFFFFFFFFFFFFFFFFFFFFFFFFFFFFFFFF AND SWAP1 DUP1 PUSH1 0x3 ADD SLOAD SWAP1 DUP1 PUSH1 0x4 ADD PUSH1 0x0 SWAP1 SLOAD SWAP1 PUSH2 0x100 EXP SWAP1 DIV PUSH1 0xFF AND SWAP1 DUP1 PUSH1 0x4 ADD PUSH1 0x1 SWAP1 SLOAD SWAP1 PUSH2 0x100 EXP SWAP1 DIV PUSH20 0xFFFFFFFFFFFFFFFFFFFFFFFFFFFFFFFFFFFFFFFF AND SWAP1 DUP1 PUSH1 0x5 ADD SLOAD SWAP1 POP DUP8 JUMP JUMPDEST PUSH1 0x0 PUSH1 0x20 MSTORE DUP1 PUSH1 0x0 MSTORE PUSH1 0x40 PUSH1 0x0 KECCAK256 PUSH1 0x0 SWAP2 POP SLOAD SWAP1 PUSH2 0x100 EXP SWAP1 DIV PUSH1 0xFF AND DUP2 JUMP JUMPDEST PUSH1 0x1 PUSH2 0xD95 PUSH1 0x40 MLOAD DUP1 PUSH1 0x40 ADD PUSH1 0x40 MSTORE DUP1 PUSH1 0x12 DUP2 MSTORE PUSH1 0x20 ADD PUSH32 0x436865636B696E6720526F6C6520666F723A0000000000000000000000000000 DUP2 MSTORE POP CALLER PUSH2 0x1225 JUMP JUMPDEST PUSH2 0xE31 PUSH1 0x40 MLOAD DUP1 PUSH1 0x40 ADD PUSH1 0x40 MSTORE DUP1 PUSH1 0xA DUP2 MSTORE PUSH1 0x20 ADD PUSH32 0x5573657220526F6C653A00000000000000000000000000000000000000000000 DUP2 MSTORE POP PUSH1 0x0 DUP1 CALLER PUSH20 0xFFFFFFFFFFFFFFFFFFFFFFFFFFFFFFFFFFFFFFFF AND PUSH20 0xFFFFFFFFFFFFFFFFFFFFFFFFFFFFFFFFFFFFFFFF AND DUP2 MSTORE PUSH1 0x20 ADD SWAP1 DUP2 MSTORE PUSH1 0x20 ADD PUSH1 0x0 KECCAK256 PUSH1 0x0 SWAP1 SLOAD SWAP1 PUSH2 0x100 EXP SWAP1 DIV PUSH1 0xFF AND PUSH1 0x4 DUP2 GT ISZERO PUSH2 0xE2C JUMPI PUSH2 0xE2B PUSH2 0x1610 JUMP JUMPDEST JUMPDEST PUSH2 0x12C1 JUMP JUMPDEST PUSH2 0xE82 PUSH1 0x40 MLOAD DUP1 PUSH1 0x40 ADD PUSH1 0x40 MSTORE DUP1 PUSH1 0x9 DUP2 MSTORE PUSH1 0x20 ADD PUSH32 0x52657175697265643A0000000000000000000000000000000000000000000000 DUP2 MSTORE POP DUP3 PUSH1 0x4 DUP2 GT ISZERO PUSH2 0xE7D JUMPI PUSH2 0xE7C PUSH2 0x1610 JUMP JUMPDEST JUMPDEST PUSH2 0x12C1 JUMP JUMPDEST DUP1 PUSH1 0x4 DUP2 GT ISZERO PUSH2 0xE95 JUMPI PUSH2 0xE94 PUSH2 0x1610 JUMP JUMPDEST JUMPDEST PUSH1 0x0 DUP1 CALLER PUSH20 0xFFFFFFFFFFFFFFFFFFFFFFFFFFFFFFFFFFFFFFFF AND PUSH20 0xFFFFFFFFFFFFFFFFFFFFFFFFFFFFFFFFFFFFFFFF AND DUP2 MSTORE PUSH1 0x20 ADD SWAP1 DUP2 MSTORE PUSH1 0x20 ADD PUSH1 0x0 KECCAK256 PUSH1 0x0 SWAP1 SLOAD SWAP1 PUSH2 0x100 EXP SWAP1 DIV PUSH1 0xFF AND PUSH1 0x4 DUP2 GT ISZERO PUSH2 0xEF3 JUMPI PUSH2 0xEF2 PUSH2 0x1610 JUMP JUMPDEST JUMPDEST EQ DUP1 PUSH2 0xF6D JUMPI POP PUSH1 0x4 DUP1 DUP2 GT ISZERO PUSH2 0xF0D JUMPI PUSH2 0xF0C PUSH2 0x1610 JUMP JUMPDEST JUMPDEST PUSH1 0x0 DUP1 CALLER PUSH20 0xFFFFFFFFFFFFFFFFFFFFFFFFFFFFFFFFFFFFFFFF AND PUSH20 0xFFFFFFFFFFFFFFFFFFFFFFFFFFFFFFFFFFFFFFFF AND DUP2 MSTORE PUSH1 0x20 ADD SWAP1 DUP2 MSTORE PUSH1 0x20 ADD PUSH1 0x0 KECCAK256 PUSH1 0x0 SWAP1 SLOAD SWAP1 PUSH2 0x100 EXP SWAP1 DIV PUSH1 0xFF AND PUSH1 0x4 DUP2 GT ISZERO PUSH2 0xF6B JUMPI PUSH2 0xF6A PUSH2 0x1610 JUMP JUMPDEST JUMPDEST EQ JUMPDEST PUSH2 0xFAC JUMPI PUSH1 0x40 MLOAD PUSH32 0x8C379A000000000000000000000000000000000000000000000000000000000 DUP2 MSTORE PUSH1 0x4 ADD PUSH2 0xFA3 SWAP1 PUSH2 0x1B45 JUMP JUMPDEST PUSH1 0x40 MLOAD DUP1 SWAP2 SUB SWAP1 REVERT JUMPDEST PUSH1 0x0 PUSH1 0x2 DUP4 PUSH1 0x40 MLOAD PUSH2 0xFBE SWAP2 SWAP1 PUSH2 0x1D60 JUMP JUMPDEST SWAP1 DUP2 MSTORE PUSH1 0x20 ADD PUSH1 0x40 MLOAD DUP1 SWAP2 SUB SWAP1 KECCAK256 SLOAD EQ PUSH2 0x100D JUMPI PUSH1 0x40 MLOAD PUSH32 0x8C379A000000000000000000000000000000000000000000000000000000000 DUP2 MSTORE PUSH1 0x4 ADD PUSH2 0x1004 SWAP1 PUSH2 0x1DC3 JUMP JUMPDEST PUSH1 0x40 MLOAD DUP1 SWAP2 SUB SWAP1 REVERT JUMPDEST PUSH1 0x3 PUSH1 0x0 DUP2 SLOAD DUP1 SWAP3 SWAP2 SWAP1 PUSH2 0x1020 SWAP1 PUSH2 0x1E12 JUMP JUMPDEST SWAP2 SWAP1 POP SSTORE POP PUSH1 0x40 MLOAD DUP1 PUSH1 0xE0 ADD PUSH1 0x40 MSTORE DUP1 PUSH1 0x3 SLOAD DUP2 MSTORE PUSH1 0x20 ADD DUP4 DUP2 MSTORE PUSH1 0x20 ADD CALLER PUSH20 0xFFFFFFFFFFFFFFFFFFFFFFFFFFFFFFFFFFFFFFFF AND DUP2 MSTORE PUSH1 0x20 ADD TIMESTAMP DUP2 MSTORE PUSH1 0x20 ADD PUSH1 0x0 PUSH1 0x2 DUP2 GT ISZERO PUSH2 0x1074 JUMPI PUSH2 0x1073 PUSH2 0x1610 JUMP JUMPDEST JUMPDEST DUP2 MSTORE PUSH1 0x20 ADD PUSH1 0x0 PUSH20 0xFFFFFFFFFFFFFFFFFFFFFFFFFFFFFFFFFFFFFFFF AND DUP2 MSTORE PUSH1 0x20 ADD PUSH1 0x0 DUP2 MSTORE POP PUSH1 0x1 PUSH1 0x0 PUSH1 0x3 SLOAD DUP2 MSTORE PUSH1 0x20 ADD SWAP1 DUP2 MSTORE PUSH1 0x20 ADD PUSH1 0x0 KECCAK256 PUSH1 0x0 DUP3 ADD MLOAD DUP2 PUSH1 0x0 ADD SSTORE PUSH1 0x20 DUP3 ADD MLOAD DUP2 PUSH1 0x1 ADD SWAP1 DUP2 PUSH2 0x10CF SWAP2 SWAP1 PUSH2 0x2006 JUMP JUMPDEST POP PUSH1 0x40 DUP3 ADD MLOAD DUP2 PUSH1 0x2 ADD PUSH1 0x0 PUSH2 0x100 EXP DUP2 SLOAD DUP2 PUSH20 0xFFFFFFFFFFFFFFFFFFFFFFFFFFFFFFFFFFFFFFFF MUL NOT AND SWAP1 DUP4 PUSH20 0xFFFFFFFFFFFFFFFFFFFFFFFFFFFFFFFFFFFFFFFF AND MUL OR SWAP1 SSTORE POP PUSH1 0x60 DUP3 ADD MLOAD DUP2 PUSH1 0x3 ADD SSTORE PUSH1 0x80 DUP3 ADD MLOAD DUP2 PUSH1 0x4 ADD PUSH1 0x0 PUSH2 0x100 EXP DUP2 SLOAD DUP2 PUSH1 0xFF MUL NOT AND SWAP1 DUP4 PUSH1 0x2 DUP2 GT ISZERO PUSH2 0x114C JUMPI PUSH2 0x114B PUSH2 0x1610 JUMP JUMPDEST JUMPDEST MUL OR SWAP1 SSTORE POP PUSH1 0xA0 DUP3 ADD MLOAD DUP2 PUSH1 0x4 ADD PUSH1 0x1 PUSH2 0x100 EXP DUP2 SLOAD DUP2 PUSH20 0xFFFFFFFFFFFFFFFFFFFFFFFFFFFFFFFFFFFFFFFF MUL NOT AND SWAP1 DUP4 PUSH20 0xFFFFFFFFFFFFFFFFFFFFFFFFFFFFFFFFFFFFFFFF AND MUL OR SWAP1 SSTORE POP PUSH1 0xC0 DUP3 ADD MLOAD DUP2 PUSH1 0x5 ADD SSTORE SWAP1 POP POP PUSH1 0x3 SLOAD PUSH1 0x2 DUP4 PUSH1 0x40 MLOAD PUSH2 0x11B8 SWAP2 SWAP1 PUSH2 0x1D60 JUMP JUMPDEST SWAP1 DUP2 MSTORE PUSH1 0x20 ADD PUSH1 0x40 MLOAD DUP1 SWAP2 SUB SWAP1 KECCAK256 DUP2 SWAP1 SSTORE POP CALLER PUSH20 0xFFFFFFFFFFFFFFFFFFFFFFFFFFFFFFFFFFFFFFFF AND PUSH1 0x3 SLOAD PUSH32 0x38C9ABD22C3E5FC53B76F2EA95D1C26F8AD5DB0F401FB342657DE9E4AC4ACE59 DUP5 PUSH1 0x40 MLOAD PUSH2 0x1213 SWAP2 SWAP1 PUSH2 0x20D8 JUMP JUMPDEST PUSH1 0x40 MLOAD DUP1 SWAP2 SUB SWAP1 LOG3 POP POP JUMP JUMPDEST PUSH1 0x3 SLOAD DUP2 JUMP JUMPDEST PUSH2 0x12BD DUP3 DUP3 PUSH1 0x40 MLOAD PUSH1 0x24 ADD PUSH2 0x123B SWAP3 SWAP2 SWAP1 PUSH2 0x20FA JUMP JUMPDEST PUSH1 0x40 MLOAD PUSH1 0x20 DUP2 DUP4 SUB SUB DUP2 MSTORE SWAP1 PUSH1 0x40 MSTORE PUSH32 0x319AF33300000000000000000000000000000000000000000000000000000000 PUSH28 0xFFFFFFFFFFFFFFFFFFFFFFFFFFFFFFFFFFFFFFFFFFFFFFFFFFFFFFFF NOT AND PUSH1 0x20 DUP3 ADD DUP1 MLOAD PUSH28 0xFFFFFFFFFFFFFFFFFFFFFFFFFFFFFFFFFFFFFFFFFFFFFFFFFFFFFFFF DUP4 DUP2 DUP4 AND OR DUP4 MSTORE POP POP POP POP PUSH2 0x135D JUMP JUMPDEST POP POP JUMP JUMPDEST PUSH2 0x1359 DUP3 DUP3 PUSH1 0x40 MLOAD PUSH1 0x24 ADD PUSH2 0x12D7 SWAP3 SWAP2 SWAP1 PUSH2 0x212A JUMP JUMPDEST PUSH1 0x40 MLOAD PUSH1 0x20 DUP2 DUP4 SUB SUB DUP2 MSTORE SWAP1 PUSH1 0x40 MSTORE PUSH32 0xB60E72CC00000000000000000000000000000000000000000000000000000000 PUSH28 0xFFFFFFFFFFFFFFFFFFFFFFFFFFFFFFFFFFFFFFFFFFFFFFFFFFFFFFFF NOT AND PUSH1 0x20 DUP3 ADD DUP1 MLOAD PUSH28 0xFFFFFFFFFFFFFFFFFFFFFFFFFFFFFFFFFFFFFFFFFFFFFFFFFFFFFFFF DUP4 DUP2 DUP4 AND OR DUP4 MSTORE POP POP POP POP PUSH2 0x135D JUMP JUMPDEST POP POP JUMP JUMPDEST PUSH2 0x1374 DUP2 PUSH2 0x136C PUSH2 0x1377 PUSH2 0x1398 JUMP JUMPDEST PUSH4 0xFFFFFFFF AND JUMP JUMPDEST POP JUMP JUMPDEST PUSH1 0x0 PUSH11 0x636F6E736F6C652E6C6F67 SWAP1 POP PUSH1 0x0 DUP1 DUP4 MLOAD PUSH1 0x20 DUP6 ADD DUP5 GAS STATICCALL POP POP POP JUMP JUMPDEST PUSH2 0x141E DUP2 SWAP1 POP SWAP2 SWAP1 POP JUMP JUMPDEST PUSH1 0x40 MLOAD DUP1 PUSH1 0xE0 ADD PUSH1 0x40 MSTORE DUP1 PUSH1 0x0 DUP2 MSTORE PUSH1 0x20 ADD PUSH1 0x60 DUP2 MSTORE PUSH1 0x20 ADD PUSH1 0x0 PUSH20 0xFFFFFFFFFFFFFFFFFFFFFFFFFFFFFFFFFFFFFFFF AND DUP2 MSTORE PUSH1 0x20 ADD PUSH1 0x0 DUP2 MSTORE PUSH1 0x20 ADD PUSH1 0x0 PUSH1 0x2 DUP2 GT ISZERO PUSH2 0x13F4 JUMPI PUSH2 0x13F3 PUSH2 0x1610 JUMP JUMPDEST JUMPDEST DUP2 MSTORE PUSH1 0x20 ADD PUSH1 0x0 PUSH20 0xFFFFFFFFFFFFFFFFFFFFFFFFFFFFFFFFFFFFFFFF AND DUP2 MSTORE PUSH1 0x20 ADD PUSH1 0x0 DUP2 MSTORE POP SWAP1 JUMP JUMPDEST PUSH2 0x1426 PUSH2 0x215A JUMP JUMPDEST JUMP JUMPDEST PUSH1 0x0 PUSH1 0x40 MLOAD SWAP1 POP SWAP1 JUMP JUMPDEST PUSH1 0x0 DUP1 REVERT JUMPDEST PUSH1 0x0 DUP1 REVERT JUMPDEST PUSH1 0x0 PUSH20 0xFFFFFFFFFFFFFFFFFFFFFFFFFFFFFFFFFFFFFFFF DUP3 AND SWAP1 POP SWAP2 SWAP1 POP JUMP JUMPDEST PUSH1 0x0 PUSH2 0x1467 DUP3 PUSH2 0x143C JUMP JUMPDEST SWAP1 POP SWAP2 SWAP1 POP JUMP JUMPDEST PUSH2 0x1477 DUP2 PUSH2 0x145C JUMP JUMPDEST DUP2 EQ PUSH2 0x1482 JUMPI PUSH1 0x0 DUP1 REVERT JUMPDEST POP JUMP JUMPDEST PUSH1 0x0 DUP2 CALLDATALOAD SWAP1 POP PUSH2 0x1494 DUP2 PUSH2 0x146E JUMP JUMPDEST SWAP3 SWAP2 POP POP JUMP JUMPDEST PUSH1 0x5 DUP2 LT PUSH2 0x14A7 JUMPI PUSH1 0x0 DUP1 REVERT JUMPDEST POP JUMP JUMPDEST PUSH1 0x0 DUP2 CALLDATALOAD SWAP1 POP PUSH2 0x14B9 DUP2 PUSH2 0x149A JUMP JUMPDEST SWAP3 SWAP2 POP POP JUMP JUMPDEST PUSH1 0x0 DUP1 PUSH1 0x40 DUP4 DUP6 SUB SLT ISZERO PUSH2 0x14D6 JUMPI PUSH2 0x14D5 PUSH2 0x1432 JUMP JUMPDEST JUMPDEST PUSH1 0x0 PUSH2 0x14E4 DUP6 DUP3 DUP7 ADD PUSH2 0x1485 JUMP JUMPDEST SWAP3 POP POP PUSH1 0x20 PUSH2 0x14F5 DUP6 DUP3 DUP7 ADD PUSH2 0x14AA JUMP JUMPDEST SWAP2 POP POP SWAP3 POP SWAP3 SWAP1 POP JUMP JUMPDEST PUSH1 0x0 DUP2 SWAP1 POP SWAP2 SWAP1 POP JUMP JUMPDEST PUSH2 0x1512 DUP2 PUSH2 0x14FF JUMP JUMPDEST DUP2 EQ PUSH2 0x151D JUMPI PUSH1 0x0 DUP1 REVERT JUMPDEST POP JUMP JUMPDEST PUSH1 0x0 DUP2 CALLDATALOAD SWAP1 POP PUSH2 0x152F DUP2 PUSH2 0x1509 JUMP JUMPDEST SWAP3 SWAP2 POP POP JUMP JUMPDEST PUSH1 0x0 PUSH1 0x20 DUP3 DUP5 SUB SLT ISZERO PUSH2 0x154B JUMPI PUSH2 0x154A PUSH2 0x1432 JUMP JUMPDEST JUMPDEST PUSH1 0x0 PUSH2 0x1559 DUP5 DUP3 DUP6 ADD PUSH2 0x1520 JUMP JUMPDEST SWAP2 POP POP SWAP3 SWAP2 POP POP JUMP JUMPDEST PUSH2 0x156B DUP2 PUSH2 0x14FF JUMP JUMPDEST DUP3 MSTORE POP POP JUMP JUMPDEST PUSH1 0x0 DUP2 MLOAD SWAP1 POP SWAP2 SWAP1 POP JUMP JUMPDEST PUSH1 0x0 DUP3 DUP3 MSTORE PUSH1 0x20 DUP3 ADD SWAP1 POP SWAP3 SWAP2 POP POP JUMP JUMPDEST PUSH1 0x0 JUMPDEST DUP4 DUP2 LT ISZERO PUSH2 0x15AB JUMPI DUP1 DUP3 ADD MLOAD DUP2 DUP5 ADD MSTORE PUSH1 0x20 DUP2 ADD SWAP1 POP PUSH2 0x1590 JUMP JUMPDEST PUSH1 0x0 DUP5 DUP5 ADD MSTORE POP POP POP POP JUMP JUMPDEST PUSH1 0x0 PUSH1 0x1F NOT PUSH1 0x1F DUP4 ADD AND SWAP1 POP SWAP2 SWAP1 POP JUMP JUMPDEST PUSH1 0x0 PUSH2 0x15D3 DUP3 PUSH2 0x1571 JUMP JUMPDEST PUSH2 0x15DD DUP2 DUP6 PUSH2 0x157C JUMP JUMPDEST SWAP4 POP PUSH2 0x15ED DUP2 DUP6 PUSH1 0x20 DUP7 ADD PUSH2 0x158D JUMP JUMPDEST PUSH2 0x15F6 DUP2 PUSH2 0x15B7 JUMP JUMPDEST DUP5 ADD SWAP2 POP POP SWAP3 SWAP2 POP POP JUMP JUMPDEST PUSH2 0x160A DUP2 PUSH2 0x145C JUMP JUMPDEST DUP3 MSTORE POP POP JUMP JUMPDEST PUSH32 0x4E487B7100000000000000000000000000000000000000000000000000000000 PUSH1 0x0 MSTORE PUSH1 0x21 PUSH1 0x4 MSTORE PUSH1 0x24 PUSH1 0x0 REVERT JUMPDEST PUSH1 0x3 DUP2 LT PUSH2 0x1650 JUMPI PUSH2 0x164F PUSH2 0x1610 JUMP JUMPDEST JUMPDEST POP JUMP JUMPDEST PUSH1 0x0 DUP2 SWAP1 POP PUSH2 0x1661 DUP3 PUSH2 0x163F JUMP JUMPDEST SWAP2 SWAP1 POP JUMP JUMPDEST PUSH1 0x0 PUSH2 0x1671 DUP3 PUSH2 0x1653 JUMP JUMPDEST SWAP1 POP SWAP2 SWAP1 POP JUMP JUMPDEST PUSH2 0x1681 DUP2 PUSH2 0x1666 JUMP JUMPDEST DUP3 MSTORE POP POP JUMP JUMPDEST PUSH1 0x0 PUSH1 0xE0 DUP4 ADD PUSH1 0x0 DUP4 ADD MLOAD PUSH2 0x169F PUSH1 0x0 DUP7 ADD DUP3 PUSH2 0x1562 JUMP JUMPDEST POP PUSH1 0x20 DUP4 ADD MLOAD DUP5 DUP3 SUB PUSH1 0x20 DUP7 ADD MSTORE PUSH2 0x16B7 DUP3 DUP3 PUSH2 0x15C8 JUMP JUMPDEST SWAP2 POP POP PUSH1 0x40 DUP4 ADD MLOAD PUSH2 0x16CC PUSH1 0x40 DUP7 ADD DUP3 PUSH2 0x1601 JUMP JUMPDEST POP PUSH1 0x60 DUP4 ADD MLOAD PUSH2 0x16DF PUSH1 0x60 DUP7 ADD DUP3 PUSH2 0x1562 JUMP JUMPDEST POP PUSH1 0x80 DUP4 ADD MLOAD PUSH2 0x16F2 PUSH1 0x80 DUP7 ADD DUP3 PUSH2 0x1678 JUMP JUMPDEST POP PUSH1 0xA0 DUP4 ADD MLOAD PUSH2 0x1705 PUSH1 0xA0 DUP7 ADD DUP3 PUSH2 0x1601 JUMP JUMPDEST POP PUSH1 0xC0 DUP4 ADD MLOAD PUSH2 0x1718 PUSH1 0xC0 DUP7 ADD DUP3 PUSH2 0x1562 JUMP JUMPDEST POP DUP1 SWAP2 POP POP SWAP3 SWAP2 POP POP JUMP JUMPDEST PUSH1 0x0 PUSH1 0x20 DUP3 ADD SWAP1 POP DUP2 DUP2 SUB PUSH1 0x0 DUP4 ADD MSTORE PUSH2 0x173D DUP2 DUP5 PUSH2 0x1687 JUMP JUMPDEST SWAP1 POP SWAP3 SWAP2 POP POP JUMP JUMPDEST PUSH1 0x0 DUP1 REVERT JUMPDEST PUSH1 0x0 DUP1 REVERT JUMPDEST PUSH32 0x4E487B7100000000000000000000000000000000000000000000000000000000 PUSH1 0x0 MSTORE PUSH1 0x41 PUSH1 0x4 MSTORE PUSH1 0x24 PUSH1 0x0 REVERT JUMPDEST PUSH2 0x1787 DUP3 PUSH2 0x15B7 JUMP JUMPDEST DUP2 ADD DUP2 DUP2 LT PUSH8 0xFFFFFFFFFFFFFFFF DUP3 GT OR ISZERO PUSH2 0x17A6 JUMPI PUSH2 0x17A5 PUSH2 0x174F JUMP JUMPDEST JUMPDEST DUP1 PUSH1 0x40 MSTORE POP POP POP JUMP JUMPDEST PUSH1 0x0 PUSH2 0x17B9 PUSH2 0x1428 JUMP JUMPDEST SWAP1 POP PUSH2 0x17C5 DUP3 DUP3 PUSH2 0x177E JUMP JUMPDEST SWAP2 SWAP1 POP JUMP JUMPDEST PUSH1 0x0 PUSH8 0xFFFFFFFFFFFFFFFF DUP3 GT ISZERO PUSH2 0x17E5 JUMPI PUSH2 0x17E4 PUSH2 0x174F JUMP JUMPDEST JUMPDEST PUSH2 0x17EE DUP3 PUSH2 0x15B7 JUMP JUMPDEST SWAP1 POP PUSH1 0x20 DUP2 ADD SWAP1 POP SWAP2 SWAP1 POP JUMP JUMPDEST DUP3 DUP2 DUP4 CALLDATACOPY PUSH1 0x0 DUP4 DUP4 ADD MSTORE POP POP POP JUMP JUMPDEST PUSH1 0x0 PUSH2 0x181D PUSH2 0x1818 DUP5 PUSH2 0x17CA JUMP JUMPDEST PUSH2 0x17AF JUMP JUMPDEST SWAP1 POP DUP3 DUP2 MSTORE PUSH1 0x20 DUP2 ADD DUP5 DUP5 DUP5 ADD GT ISZERO PUSH2 0x1839 JUMPI PUSH2 0x1838 PUSH2 0x174A JUMP JUMPDEST JUMPDEST PUSH2 0x1844 DUP5 DUP3 DUP6 PUSH2 0x17FB JUMP JUMPDEST POP SWAP4 SWAP3 POP POP POP JUMP JUMPDEST PUSH1 0x0 DUP3 PUSH1 0x1F DUP4 ADD SLT PUSH2 0x1861 JUMPI PUSH2 0x1860 PUSH2 0x1745 JUMP JUMPDEST JUMPDEST DUP2 CALLDATALOAD PUSH2 0x1871 DUP5 DUP3 PUSH1 0x20 DUP7 ADD PUSH2 0x180A JUMP JUMPDEST SWAP2 POP POP SWAP3 SWAP2 POP POP JUMP JUMPDEST PUSH1 0x0 PUSH1 0x20 DUP3 DUP5 SUB SLT ISZERO PUSH2 0x1890 JUMPI PUSH2 0x188F PUSH2 0x1432 JUMP JUMPDEST JUMPDEST PUSH1 0x0 DUP3 ADD CALLDATALOAD PUSH8 0xFFFFFFFFFFFFFFFF DUP2 GT ISZERO PUSH2 0x18AE JUMPI PUSH2 0x18AD PUSH2 0x1437 JUMP JUMPDEST JUMPDEST PUSH2 0x18BA DUP5 DUP3 DUP6 ADD PUSH2 0x184C JUMP JUMPDEST SWAP2 POP POP SWAP3 SWAP2 POP POP JUMP JUMPDEST PUSH2 0x18CC DUP2 PUSH2 0x14FF JUMP JUMPDEST DUP3 MSTORE POP POP JUMP JUMPDEST PUSH1 0x0 PUSH1 0x20 DUP3 ADD SWAP1 POP PUSH2 0x18E7 PUSH1 0x0 DUP4 ADD DUP5 PUSH2 0x18C3 JUMP JUMPDEST SWAP3 SWAP2 POP POP JUMP JUMPDEST PUSH1 0x0 DUP2 ISZERO ISZERO SWAP1 POP SWAP2 SWAP1 POP JUMP JUMPDEST PUSH2 0x1902 DUP2 PUSH2 0x18ED JUMP JUMPDEST DUP2 EQ PUSH2 0x190D JUMPI PUSH1 0x0 DUP1 REVERT JUMPDEST POP JUMP JUMPDEST PUSH1 0x0 DUP2 CALLDATALOAD SWAP1 POP PUSH2 0x191F DUP2 PUSH2 0x18F9 JUMP JUMPDEST SWAP3 SWAP2 POP POP JUMP JUMPDEST PUSH1 0x0 DUP1 PUSH1 0x40 DUP4 DUP6 SUB SLT ISZERO PUSH2 0x193C JUMPI PUSH2 0x193B PUSH2 0x1432 JUMP JUMPDEST JUMPDEST PUSH1 0x0 PUSH2 0x194A DUP6 DUP3 DUP7 ADD PUSH2 0x1520 JUMP JUMPDEST SWAP3 POP POP PUSH1 0x20 PUSH2 0x195B DUP6 DUP3 DUP7 ADD PUSH2 0x1910 JUMP JUMPDEST SWAP2 POP POP SWAP3 POP SWAP3 SWAP1 POP JUMP JUMPDEST PUSH1 0x0 DUP3 DUP3 MSTORE PUSH1 0x20 DUP3 ADD SWAP1 POP SWAP3 SWAP2 POP POP JUMP JUMPDEST PUSH1 0x0 PUSH2 0x1981 DUP3 PUSH2 0x1571 JUMP JUMPDEST PUSH2 0x198B DUP2 DUP6 PUSH2 0x1965 JUMP JUMPDEST SWAP4 POP PUSH2 0x199B DUP2 DUP6 PUSH1 0x20 DUP7 ADD PUSH2 0x158D JUMP JUMPDEST PUSH2 0x19A4 DUP2 PUSH2 0x15B7 JUMP JUMPDEST DUP5 ADD SWAP2 POP POP SWAP3 SWAP2 POP POP JUMP JUMPDEST PUSH2 0x19B8 DUP2 PUSH2 0x145C JUMP JUMPDEST DUP3 MSTORE POP POP JUMP JUMPDEST PUSH2 0x19C7 DUP2 PUSH2 0x1666 JUMP JUMPDEST DUP3 MSTORE POP POP JUMP JUMPDEST PUSH1 0x0 PUSH1 0xE0 DUP3 ADD SWAP1 POP PUSH2 0x19E2 PUSH1 0x0 DUP4 ADD DUP11 PUSH2 0x18C3 JUMP JUMPDEST DUP2 DUP2 SUB PUSH1 0x20 DUP4 ADD MSTORE PUSH2 0x19F4 DUP2 DUP10 PUSH2 0x1976 JUMP JUMPDEST SWAP1 POP PUSH2 0x1A03 PUSH1 0x40 DUP4 ADD DUP9 PUSH2 0x19AF JUMP JUMPDEST PUSH2 0x1A10 PUSH1 0x60 DUP4 ADD DUP8 PUSH2 0x18C3 JUMP JUMPDEST PUSH2 0x1A1D PUSH1 0x80 DUP4 ADD DUP7 PUSH2 0x19BE JUMP JUMPDEST PUSH2 0x1A2A PUSH1 0xA0 DUP4 ADD DUP6 PUSH2 0x19AF JUMP JUMPDEST PUSH2 0x1A37 PUSH1 0xC0 DUP4 ADD DUP5 PUSH2 0x18C3 JUMP JUMPDEST SWAP9 SWAP8 POP POP POP POP POP POP POP POP JUMP JUMPDEST PUSH1 0x0 PUSH1 0x20 DUP3 DUP5 SUB SLT ISZERO PUSH2 0x1A59 JUMPI PUSH2 0x1A58 PUSH2 0x1432 JUMP JUMPDEST JUMPDEST PUSH1 0x0 PUSH2 0x1A67 DUP5 DUP3 DUP6 ADD PUSH2 0x1485 JUMP JUMPDEST SWAP2 POP POP SWAP3 SWAP2 POP POP JUMP JUMPDEST PUSH1 0x5 DUP2 LT PUSH2 0x1A81 JUMPI PUSH2 0x1A80 PUSH2 0x1610 JUMP JUMPDEST JUMPDEST POP JUMP JUMPDEST PUSH1 0x0 DUP2 SWAP1 POP PUSH2 0x1A92 DUP3 PUSH2 0x1A70 JUMP JUMPDEST SWAP2 SWAP1 POP JUMP JUMPDEST PUSH1 0x0 PUSH2 0x1AA2 DUP3 PUSH2 0x1A84 JUMP JUMPDEST SWAP1 POP SWAP2 SWAP1 POP JUMP JUMPDEST PUSH2 0x1AB2 DUP2 PUSH2 0x1A97 JUMP JUMPDEST DUP3 MSTORE POP POP JUMP JUMPDEST PUSH1 0x0 PUSH1 0x20 DUP3 ADD SWAP1 POP PUSH2 0x1ACD PUSH1 0x0 DUP4 ADD DUP5 PUSH2 0x1AA9 JUMP JUMPDEST SWAP3 SWAP2 POP POP JUMP JUMPDEST PUSH32 0x556E617574686F72697A65643A20496E73756666696369656E74207072697669 PUSH1 0x0 DUP3 ADD MSTORE PUSH32 0x6C65676573000000000000000000000000000000000000000000000000000000 PUSH1 0x20 DUP3 ADD MSTORE POP JUMP JUMPDEST PUSH1 0x0 PUSH2 0x1B2F PUSH1 0x25 DUP4 PUSH2 0x1965 JUMP JUMPDEST SWAP2 POP PUSH2 0x1B3A DUP3 PUSH2 0x1AD3 JUMP JUMPDEST PUSH1 0x40 DUP3 ADD SWAP1 POP SWAP2 SWAP1 POP JUMP JUMPDEST PUSH1 0x0 PUSH1 0x20 DUP3 ADD SWAP1 POP DUP2 DUP2 SUB PUSH1 0x0 DUP4 ADD MSTORE PUSH2 0x1B5E DUP2 PUSH2 0x1B22 JUMP JUMPDEST SWAP1 POP SWAP2 SWAP1 POP JUMP JUMPDEST PUSH32 0x556E617574686F72697A65640000000000000000000000000000000000000000 PUSH1 0x0 DUP3 ADD MSTORE POP JUMP JUMPDEST PUSH1 0x0 PUSH2 0x1B9B PUSH1 0xC DUP4 PUSH2 0x1965 JUMP JUMPDEST SWAP2 POP PUSH2 0x1BA6 DUP3 PUSH2 0x1B65 JUMP JUMPDEST PUSH1 0x20 DUP3 ADD SWAP1 POP SWAP2 SWAP1 POP JUMP JUMPDEST PUSH1 0x0 PUSH1 0x20 DUP3 ADD SWAP1 POP DUP2 DUP2 SUB PUSH1 0x0 DUP4 ADD MSTORE PUSH2 0x1BCA DUP2 PUSH2 0x1B8E JUMP JUMPDEST SWAP1 POP SWAP2 SWAP1 POP JUMP JUMPDEST PUSH32 0x4E487B7100000000000000000000000000000000000000000000000000000000 PUSH1 0x0 MSTORE PUSH1 0x22 PUSH1 0x4 MSTORE PUSH1 0x24 PUSH1 0x0 REVERT JUMPDEST PUSH1 0x0 PUSH1 0x2 DUP3 DIV SWAP1 POP PUSH1 0x1 DUP3 AND DUP1 PUSH2 0x1C18 JUMPI PUSH1 0x7F DUP3 AND SWAP2 POP JUMPDEST PUSH1 0x20 DUP3 LT DUP2 SUB PUSH2 0x1C2B JUMPI PUSH2 0x1C2A PUSH2 0x1BD1 JUMP JUMPDEST JUMPDEST POP SWAP2 SWAP1 POP JUMP JUMPDEST PUSH32 0x496E76616C696420506170657220494400000000000000000000000000000000 PUSH1 0x0 DUP3 ADD MSTORE POP JUMP JUMPDEST PUSH1 0x0 PUSH2 0x1C67 PUSH1 0x10 DUP4 PUSH2 0x1965 JUMP JUMPDEST SWAP2 POP PUSH2 0x1C72 DUP3 PUSH2 0x1C31 JUMP JUMPDEST PUSH1 0x20 DUP3 ADD SWAP1 POP SWAP2 SWAP1 POP JUMP JUMPDEST PUSH1 0x0 PUSH1 0x20 DUP3 ADD SWAP1 POP DUP2 DUP2 SUB PUSH1 0x0 DUP4 ADD MSTORE PUSH2 0x1C96 DUP2 PUSH2 0x1C5A JUMP JUMPDEST SWAP1 POP SWAP2 SWAP1 POP JUMP JUMPDEST PUSH32 0x5061706572206E6F7420696E2070656E64696E67207374617475730000000000 PUSH1 0x0 DUP3 ADD MSTORE POP JUMP JUMPDEST PUSH1 0x0 PUSH2 0x1CD3 PUSH1 0x1B DUP4 PUSH2 0x1965 JUMP JUMPDEST SWAP2 POP PUSH2 0x1CDE DUP3 PUSH2 0x1C9D JUMP JUMPDEST PUSH1 0x20 DUP3 ADD SWAP1 POP SWAP2 SWAP1 POP JUMP JUMPDEST PUSH1 0x0 PUSH1 0x20 DUP3 ADD SWAP1 POP DUP2 DUP2 SUB PUSH1 0x0 DUP4 ADD MSTORE PUSH2 0x1D02 DUP2 PUSH2 0x1CC6 JUMP JUMPDEST SWAP1 POP SWAP2 SWAP1 POP JUMP JUMPDEST PUSH1 0x0 PUSH1 0x20 DUP3 ADD SWAP1 POP PUSH2 0x1D1E PUSH1 0x0 DUP4 ADD DUP5 PUSH2 0x19BE JUMP JUMPDEST SWAP3 SWAP2 POP POP JUMP JUMPDEST PUSH1 0x0 DUP2 SWAP1 POP SWAP3 SWAP2 POP POP JUMP JUMPDEST PUSH1 0x0 PUSH2 0x1D3A DUP3 PUSH2 0x1571 JUMP JUMPDEST PUSH2 0x1D44 DUP2 DUP6 PUSH2 0x1D24 JUMP JUMPDEST SWAP4 POP PUSH2 0x1D54 DUP2 DUP6 PUSH1 0x20 DUP7 ADD PUSH2 0x158D JUMP JUMPDEST DUP1 DUP5 ADD SWAP2 POP POP SWAP3 SWAP2 POP POP JUMP JUMPDEST PUSH1 0x0 PUSH2 0x1D6C DUP3 DUP5 PUSH2 0x1D2F JUMP JUMPDEST SWAP2 POP DUP2 SWAP1 POP SWAP3 SWAP2 POP POP JUMP JUMPDEST PUSH32 0x506170657220616C726561647920726567697374657265640000000000000000 PUSH1 0x0 DUP3 ADD MSTORE POP JUMP JUMPDEST PUSH1 0x0 PUSH2 0x1DAD PUSH1 0x18 DUP4 PUSH2 0x1965 JUMP JUMPDEST SWAP2 POP PUSH2 0x1DB8 DUP3 PUSH2 0x1D77 JUMP JUMPDEST PUSH1 0x20 DUP3 ADD SWAP1 POP SWAP2 SWAP1 POP JUMP JUMPDEST PUSH1 0x0 PUSH1 0x20 DUP3 ADD SWAP1 POP DUP2 DUP2 SUB PUSH1 0x0 DUP4 ADD MSTORE PUSH2 0x1DDC DUP2 PUSH2 0x1DA0 JUMP JUMPDEST SWAP1 POP SWAP2 SWAP1 POP JUMP JUMPDEST PUSH32 0x4E487B7100000000000000000000000000000000000000000000000000000000 PUSH1 0x0 MSTORE PUSH1 0x11 PUSH1 0x4 MSTORE PUSH1 0x24 PUSH1 0x0 REVERT JUMPDEST PUSH1 0x0 PUSH2 0x1E1D DUP3 PUSH2 0x14FF JUMP JUMPDEST SWAP2 POP PUSH32 0xFFFFFFFFFFFFFFFFFFFFFFFFFFFFFFFFFFFFFFFFFFFFFFFFFFFFFFFFFFFFFFFF DUP3 SUB PUSH2 0x1E4F JUMPI PUSH2 0x1E4E PUSH2 0x1DE3 JUMP JUMPDEST JUMPDEST PUSH1 0x1 DUP3 ADD SWAP1 POP SWAP2 SWAP1 POP JUMP JUMPDEST PUSH1 0x0 DUP2 SWAP1 POP DUP2 PUSH1 0x0 MSTORE PUSH1 0x20 PUSH1 0x0 KECCAK256 SWAP1 POP SWAP2 SWAP1 POP JUMP JUMPDEST PUSH1 0x0 PUSH1 0x20 PUSH1 0x1F DUP4 ADD DIV SWAP1 POP SWAP2 SWAP1 POP JUMP JUMPDEST PUSH1 0x0 DUP3 DUP3 SHL SWAP1 POP SWAP3 SWAP2 POP POP JUMP JUMPDEST PUSH1 0x0 PUSH1 0x8 DUP4 MUL PUSH2 0x1EBC PUSH32 0xFFFFFFFFFFFFFFFFFFFFFFFFFFFFFFFFFFFFFFFFFFFFFFFFFFFFFFFFFFFFFFFF DUP3 PUSH2 0x1E7F JUMP JUMPDEST PUSH2 0x1EC6 DUP7 DUP4 PUSH2 0x1E7F JUMP JUMPDEST SWAP6 POP DUP1 NOT DUP5 AND SWAP4 POP DUP1 DUP7 AND DUP5 OR SWAP3 POP POP POP SWAP4 SWAP3 POP POP POP JUMP JUMPDEST PUSH1 0x0 DUP2 SWAP1 POP SWAP2 SWAP1 POP JUMP JUMPDEST PUSH1 0x0 PUSH2 0x1F03 PUSH2 0x1EFE PUSH2 0x1EF9 DUP5 PUSH2 0x14FF JUMP JUMPDEST PUSH2 0x1EDE JUMP JUMPDEST PUSH2 0x14FF JUMP JUMPDEST SWAP1 POP SWAP2 SWAP1 POP JUMP JUMPDEST PUSH1 0x0 DUP2 SWAP1 POP SWAP2 SWAP1 POP JUMP JUMPDEST PUSH2 0x1F1D DUP4 PUSH2 0x1EE8 JUMP JUMPDEST PUSH2 0x1F31 PUSH2 0x1F29 DUP3 PUSH2 0x1F0A JUMP JUMPDEST DUP5 DUP5 SLOAD PUSH2 0x1E8C JUMP JUMPDEST DUP3 SSTORE POP POP POP POP JUMP JUMPDEST PUSH1 0x0 SWAP1 JUMP JUMPDEST PUSH2 0x1F46 PUSH2 0x1F39 JUMP JUMPDEST PUSH2 0x1F51 DUP2 DUP5 DUP5 PUSH2 0x1F14 JUMP JUMPDEST POP POP POP JUMP JUMPDEST JUMPDEST DUP2 DUP2 LT ISZERO PUSH2 0x1F75 JUMPI PUSH2 0x1F6A PUSH1 0x0 DUP3 PUSH2 0x1F3E JUMP JUMPDEST PUSH1 0x1 DUP2 ADD SWAP1 POP PUSH2 0x1F57 JUMP JUMPDEST POP POP JUMP JUMPDEST PUSH1 0x1F DUP3 GT ISZERO PUSH2 0x1FBA JUMPI PUSH2 0x1F8B DUP2 PUSH2 0x1E5A JUMP JUMPDEST PUSH2 0x1F94 DUP5 PUSH2 0x1E6F JUMP JUMPDEST DUP2 ADD PUSH1 0x20 DUP6 LT ISZERO PUSH2 0x1FA3 JUMPI DUP2 SWAP1 POP JUMPDEST PUSH2 0x1FB7 PUSH2 0x1FAF DUP6 PUSH2 0x1E6F JUMP JUMPDEST DUP4 ADD DUP3 PUSH2 0x1F56 JUMP JUMPDEST POP POP JUMPDEST POP POP POP JUMP JUMPDEST PUSH1 0x0 DUP3 DUP3 SHR SWAP1 POP SWAP3 SWAP2 POP POP JUMP JUMPDEST PUSH1 0x0 PUSH2 0x1FDD PUSH1 0x0 NOT DUP5 PUSH1 0x8 MUL PUSH2 0x1FBF JUMP JUMPDEST NOT DUP1 DUP4 AND SWAP2 POP POP SWAP3 SWAP2 POP POP JUMP JUMPDEST PUSH1 0x0 PUSH2 0x1FF6 DUP4 DUP4 PUSH2 0x1FCC JUMP JUMPDEST SWAP2 POP DUP3 PUSH1 0x2 MUL DUP3 OR SWAP1 POP SWAP3 SWAP2 POP POP JUMP JUMPDEST PUSH2 0x200F DUP3 PUSH2 0x1571 JUMP JUMPDEST PUSH8 0xFFFFFFFFFFFFFFFF DUP2 GT ISZERO PUSH2 0x2028 JUMPI PUSH2 0x2027 PUSH2 0x174F JUMP JUMPDEST JUMPDEST PUSH2 0x2032 DUP3 SLOAD PUSH2 0x1C00 JUMP JUMPDEST PUSH2 0x203D DUP3 DUP3 DUP6 PUSH2 0x1F79 JUMP JUMPDEST PUSH1 0x0 PUSH1 0x20 SWAP1 POP PUSH1 0x1F DUP4 GT PUSH1 0x1 DUP2 EQ PUSH2 0x2070 JUMPI PUSH1 0x0 DUP5 ISZERO PUSH2 0x205E JUMPI DUP3 DUP8 ADD MLOAD SWAP1 POP JUMPDEST PUSH2 0x2068 DUP6 DUP3 PUSH2 0x1FEA JUMP JUMPDEST DUP7 SSTORE POP PUSH2 0x20D0 JUMP JUMPDEST PUSH1 0x1F NOT DUP5 AND PUSH2 0x207E DUP7 PUSH2 0x1E5A JUMP JUMPDEST PUSH1 0x0 JUMPDEST DUP3 DUP2 LT ISZERO PUSH2 0x20A6 JUMPI DUP5 DUP10 ADD MLOAD DUP3 SSTORE PUSH1 0x1 DUP3 ADD SWAP2 POP PUSH1 0x20 DUP6 ADD SWAP5 POP PUSH1 0x20 DUP2 ADD SWAP1 POP PUSH2 0x2081 JUMP JUMPDEST DUP7 DUP4 LT ISZERO PUSH2 0x20C3 JUMPI DUP5 DUP10 ADD MLOAD PUSH2 0x20BF PUSH1 0x1F DUP10 AND DUP3 PUSH2 0x1FCC JUMP JUMPDEST DUP4 SSTORE POP JUMPDEST PUSH1 0x1 PUSH1 0x2 DUP9 MUL ADD DUP9 SSTORE POP POP POP JUMPDEST POP POP POP POP POP POP JUMP JUMPDEST PUSH1 0x0 PUSH1 0x20 DUP3 ADD SWAP1 POP DUP2 DUP2 SUB PUSH1 0x0 DUP4 ADD MSTORE PUSH2 0x20F2 DUP2 DUP5 PUSH2 0x1976 JUMP JUMPDEST SWAP1 POP SWAP3 SWAP2 POP POP JUMP JUMPDEST PUSH1 0x0 PUSH1 0x40 DUP3 ADD SWAP1 POP DUP2 DUP2 SUB PUSH1 0x0 DUP4 ADD MSTORE PUSH2 0x2114 DUP2 DUP6 PUSH2 0x1976 JUMP JUMPDEST SWAP1 POP PUSH2 0x2123 PUSH1 0x20 DUP4 ADD DUP5 PUSH2 0x19AF JUMP JUMPDEST SWAP4 SWAP3 POP POP POP JUMP JUMPDEST PUSH1 0x0 PUSH1 0x40 DUP3 ADD SWAP1 POP DUP2 DUP2 SUB PUSH1 0x0 DUP4 ADD MSTORE PUSH2 0x2144 DUP2 DUP6 PUSH2 0x1976 JUMP JUMPDEST SWAP1 POP PUSH2 0x2153 PUSH1 0x20 DUP4 ADD DUP5 PUSH2 0x18C3 JUMP JUMPDEST SWAP4 SWAP3 POP POP POP JUMP JUMPDEST PUSH32 0x4E487B7100000000000000000000000000000000000000000000000000000000 PUSH1 0x0 MSTORE PUSH1 0x51 PUSH1 0x4 MSTORE PUSH1 0x24 PUSH1 0x0 REVERT INVALID LOG2 PUSH5 0x6970667358 0x22 SLT KECCAK256 MLOAD 0xB5 PUSH15 0xADDF71D1E50EEAAFE14797541ABE2 0xB9 MLOAD 0x2F 0xC9 0x2D CALLDATASIZE SWAP4 LT 0xEC CALL 0xC0 BYTE 0xAD 0xC1 PUSH5 0x736F6C6343 STOP ADDMOD SGT STOP CALLER "},"methodIdentifiers":{"getPaper(uint256)":"07993f04","hashToId(string)":"121b618e","paperCount()":"a56c2cb9","papers(uint256)":"5e775a27","reviewPaper(uint256,bool)":"2e8ad0b9","setUserRole(address,uint8)":"03a69611","uploadPaper(string)":"9ad1e412","userRoles(address)":"74d5e100"}}}}}