{
  "_format": "hh-sol-artifact-1",
  "contractName": "ExamPaperRegistry",
  "sourceName": "contracts/ExamPaperRegistry.sol",
  "abi": [
    {
      "inputs": [],
      "stateMutability": "nonpayable",
      "type": "constructor"
    },
    {
      "anonymous": false,
      "inputs": [
        {
          "indexed": true,
          "internalType": "uint256",
          "name": "paperId",
          "type": "uint256"
        },
        {
          "indexed": false,
          "internalType": "enum ExamPaperRegistry.PaperStatus",
          "name": "status",
          "type": "uint8"
        },
        {
          "indexed": true,
          "internalType": "address",
          "name": "moderator",
          "type": "address"
        }
      ],
      "name": "PaperStatusUpdated",
      "type": "event"
    },
    {
      "anonymous": false,
      "inputs": [
        {
          "indexed": true,
          "internalType": "uint256",
          "name": "paperId",
          "type": "uint256"
        },
        {
          "indexed": true,
          "internalType": "address",
          "name": "uploader",
          "type": "address"
        },
        {
          "indexed": false,
          "internalType": "string",
          "name": "paperHash",
          "type": "string"
        }
      ],
      "name": "PaperUploaded",
      "type": "event"
    },
    {
      "anonymous": false,
      "inputs": [
        {
          "indexed": true,
          "internalType": "address",
          "name": "user",
          "type": "address"
        },
        {
          "indexed": false,
          "internalType": "enum ExamPaperRegistry.Role",
          "name": "role",
          "type": "uint8"
        }
      ],
      "name": "UserRoleUpdated",
      "type": "event"
    },
    {
      "inputs": [
        {
          "internalType": "uint256",
          "name": "_paperId",
          "type": "uint256"
        }
      ],
      "name": "getPaper",
      "outputs": [
        {
          "components": [
            {
              "internalType": "uint256",
              "name": "id",
              "type": "uint256"
            },
            {
              "internalType": "string",
              "name": "ipfsHash",
              "type": "string"
            },
            {
              "internalType": "address",
              "name": "uploader",
              "type": "address"
            },
            {
              "internalType": "uint256",
              "name": "uploadTime",
              "type": "uint256"
            },
            {
              "internalType": "enum ExamPaperRegistry.PaperStatus",
              "name": "status",
              "type": "uint8"
            },
            {
              "internalType": "address",
              "name": "approver",
              "type": "address"
            },
            {
              "internalType": "uint256",
              "name": "approvalTime",
              "type": "uint256"
            }
          ],
          "internalType": "struct ExamPaperRegistry.Paper",
          "name": "",
          "type": "tuple"
        }
      ],
      "stateMutability": "view",
      "type": "function"
    },
    {
      "inputs": [
        {
          "internalType": "string",
          "name": "",
          "type": "string"
        }
      ],
      "name": "hashToId",
      "outputs": [
        {
          "internalType": "uint256",
          "name": "",
          "type": "uint256"
        }
      ],
      "stateMutability": "view",
      "type": "function"
    },
    {
      "inputs": [],
      "name": "paperCount",
      "outputs": [
        {
          "internalType": "uint256",
          "name": "",
          "type": "uint256"
        }
      ],
      "stateMutability": "view",
      "type": "function"
    },
    {
      "inputs": [
        {
          "internalType": "uint256",
          "name": "",
          "type": "uint256"
        }
      ],
      "name": "papers",
      "outputs": [
        {
          "internalType": "uint256",
          "name": "id",
          "type": "uint256"
        },
        {
          "internalType": "string",
          "name": "ipfsHash",
          "type": "string"
        },
        {
          "internalType": "address",
          "name": "uploader",
          "type": "address"
        },
        {
          "internalType": "uint256",
          "name": "uploadTime",
          "type": "uint256"
        },
        {
          "internalType": "enum ExamPaperRegistry.PaperStatus",
          "name": "status",
          "type": "uint8"
        },
        {
          "internalType": "address",
          "name": "approver",
          "type": "address"
        },
        {
          "internalType": "uint256",
          "name": "approvalTime",
          "type": "uint256"
        }
      ],
      "stateMutability": "view",
      "type": "function"
    },
    {
      "inputs": [
        {
          "internalType": "uint256",
          "name": "_paperId",
          "type": "uint256"
        },
        {
          "internalType": "bool",
          "name": "_approved",
          "type": "bool"
        }
      ],
      "name": "reviewPaper",
      "outputs": [],
      "stateMutability": "nonpayable",
      "type": "function"
    },
    {
      "inputs": [
        {
          "internalType": "address",
          "name": "_user",
          "type": "address"
        },
        {
          "internalType": "enum ExamPaperRegistry.Role",
          "name": "_role",
          "type": "uint8"
        }
      ],
      "name": "setUserRole",
      "outputs": [],
      "stateMutability": "nonpayable",
      "type": "function"
    },
    {
      "inputs": [
        {
          "internalType": "string",
          "name": "_paperHash",
          "type": "string"
        }
      ],
      "name": "uploadPaper",
      "outputs": [],
      "stateMutability": "nonpayable",
      "type": "function"
    },
    {
      "inputs": [
        {
          "internalType": "address",
          "name": "",
          "type": "address"
        }
      ],
      "name": "userRoles",
      "outputs": [
        {
          "internalType": "enum ExamPaperRegistry.Role",
          "name": "",
          "type": "uint8"
        }
      ],
      "stateMutability": "view",
      "type": "function"
    },
    {
      "inputs": [
        {
          "internalType": "string",
          "name": "_paperHash",
          "type": "string"
        }
      ],
      "name": "verifyPaper",
      "outputs": [
        {
          "internalType": "bool",
          "name": "exists",
          "type": "bool"
        },
        {
          "internalType": "uint256",
          "name": "paperId",
          "type": "uint256"
        }
      ],
      "stateMutability": "view",
      "type": "function"
    }
  ],
  "bytecode": "0x608060405234801561001057600080fd5b5060046000803373ffffffffffffffffffffffffffffffffffffffff1673ffffffffffffffffffffffffffffffffffffffff16815260200190815260200160002060006101000a81548160ff021916908360048111156100735761007261007d565b5b02179055506100ac565b7f4e487b7100000000000000000000000000000000000000000000000000000000600052602160045260246000fd5b611790806100bb6000396000f3fe608060405234801561001057600080fd5b50600436106100935760003560e01c80635e775a27116100665780635e775a271461013057806374d5e100146101665780638aa651fe146101965780639ad1e412146101c7578063a56c2cb9146101e357610093565b806303a696111461009857806307993f04146100b4578063121b618e146100e45780632e8ad0b914610114575b600080fd5b6100b260048036038101906100ad9190610be5565b610201565b005b6100ce60048036038101906100c99190610c5b565b6102b9565b6040516100db9190610e49565b60405180910390f35b6100fe60048036038101906100f99190610fa0565b61047d565b60405161010b9190610ff8565b60405180910390f35b61012e6004803603810190610129919061104b565b6104ab565b005b61014a60048036038101906101459190610c5b565b6106f5565b60405161015d97969594939291906110f3565b60405180910390f35b610180600480360381019061017b9190611169565b61080c565b60405161018d91906111de565b60405180910390f35b6101b060048036038101906101ab9190610fa0565b61082c565b6040516101be929190611208565b60405180910390f35b6101e160048036038101906101dc9190610fa0565b61085b565b005b6101eb610acd565b6040516101f89190610ff8565b60405180910390f35b806000808473ffffffffffffffffffffffffffffffffffffffff1673ffffffffffffffffffffffffffffffffffffffff16815260200190815260200160002060006101000a81548160ff0219169083600481111561026257610261610d36565b5b02179055508173ffffffffffffffffffffffffffffffffffffffff167f8348234787debc8768e710bb8608864a37ffc99e6bde8bf5358171239895f2b3826040516102ad91906111de565b60405180910390a25050565b6102c1610ad3565b600160008381526020019081526020016000206040518060e0016040529081600082015481526020016001820180546102f990611260565b80601f016020809104026020016040519081016040528092919081815260200182805461032590611260565b80156103725780601f1061034757610100808354040283529160200191610372565b820191906000526020600020905b81548152906001019060200180831161035557829003601f168201915b505050505081526020016002820160009054906101000a900473ffffffffffffffffffffffffffffffffffffffff1673ffffffffffffffffffffffffffffffffffffffff1673ffffffffffffffffffffffffffffffffffffffff168152602001600382015481526020016004820160009054906101000a900460ff166002811115610400576103ff610d36565b5b600281111561041257610411610d36565b5b81526020016004820160019054906101000a900473ffffffffffffffffffffffffffffffffffffffff1673ffffffffffffffffffffffffffffffffffffffff1673ffffffffffffffffffffffffffffffffffffffff1681526020016005820154815250509050919050565b6002818051602081018201805184825260208301602085012081835280955050505050506000915090505481565b6000821180156104bd57506003548211155b6104fc576040517f08c379a00000000000000000000000000000000000000000000000000000000081526004016104f3906112dd565b60405180910390fd5b600060028111156105105761050f610d36565b5b6001600084815260200190815260200160002060040160009054906101000a900460ff16600281111561054657610545610d36565b5b14610586576040517f08c379a000000000000000000000000000000000000000000000000000000000815260040161057d90611349565b60405180910390fd5b80156105cf57600180600084815260200190815260200160002060040160006101000a81548160ff021916908360028111156105c5576105c4610d36565b5b021790555061060f565b60026001600084815260200190815260200160002060040160006101000a81548160ff0219169083600281111561060957610608610d36565b5b02179055505b336001600084815260200190815260200160002060040160016101000a81548173ffffffffffffffffffffffffffffffffffffffff021916908373ffffffffffffffffffffffffffffffffffffffff1602179055504260016000848152602001908152602001600020600501819055503373ffffffffffffffffffffffffffffffffffffffff16827faf8e44af661f5464e15bdbee60c78783c91b144df7e85e5fb11cba0b7c694e9a6001600086815260200190815260200160002060040160009054906101000a900460ff166040516106e99190611369565b60405180910390a35050565b600160205280600052604060002060009150905080600001549080600101805461071e90611260565b80601f016020809104026020016040519081016040528092919081815260200182805461074a90611260565b80156107975780601f1061076c57610100808354040283529160200191610797565b820191906000526020600020905b81548152906001019060200180831161077a57829003601f168201915b5050505050908060020160009054906101000a900473ffffffffffffffffffffffffffffffffffffffff16908060030154908060040160009054906101000a900460ff16908060040160019054906101000a900473ffffffffffffffffffffffffffffffffffffffff16908060050154905087565b60006020528060005260406000206000915054906101000a900460ff1681565b60008060028360405161083f91906113c0565b9081526020016040518091039020549050600081119150915091565b600060028260405161086d91906113c0565b908152602001604051809103902054146108bc576040517f08c379a00000000000000000000000000000000000000000000000000000000081526004016108b390611423565b60405180910390fd5b600360008154809291906108cf90611472565b91905055506040518060e0016040528060035481526020018281526020013373ffffffffffffffffffffffffffffffffffffffff1681526020014281526020016000600281111561092357610922610d36565b5b8152602001600073ffffffffffffffffffffffffffffffffffffffff168152602001600081525060016000600354815260200190815260200160002060008201518160000155602082015181600101908161097e9190611666565b5060408201518160020160006101000a81548173ffffffffffffffffffffffffffffffffffffffff021916908373ffffffffffffffffffffffffffffffffffffffff1602179055506060820151816003015560808201518160040160006101000a81548160ff021916908360028111156109fb576109fa610d36565b5b021790555060a08201518160040160016101000a81548173ffffffffffffffffffffffffffffffffffffffff021916908373ffffffffffffffffffffffffffffffffffffffff16021790555060c08201518160050155905050600354600282604051610a6791906113c0565b9081526020016040518091039020819055503373ffffffffffffffffffffffffffffffffffffffff166003547f38c9abd22c3e5fc53b76f2ea95d1c26f8ad5db0f401fb342657de9e4ac4ace5983604051610ac29190611738565b60405180910390a350565b60035481565b6040518060e001604052806000815260200160608152602001600073ffffffffffffffffffffffffffffffffffffffff1681526020016000815260200160006002811115610b2457610b23610d36565b5b8152602001600073ffffffffffffffffffffffffffffffffffffffff168152602001600081525090565b6000604051905090565b600080fd5b600080fd5b600073ffffffffffffffffffffffffffffffffffffffff82169050919050565b6000610b8d82610b62565b9050919050565b610b9d81610b82565b8114610ba857600080fd5b50565b600081359050610bba81610b94565b92915050565b60058110610bcd57600080fd5b50565b600081359050610bdf81610bc0565b92915050565b60008060408385031215610bfc57610bfb610b58565b5b6000610c0a85828601610bab565b9250506020610c1b85828601610bd0565b9150509250929050565b6000819050919050565b610c3881610c25565b8114610c4357600080fd5b50565b600081359050610c5581610c2f565b92915050565b600060208284031215610c7157610c70610b58565b5b6000610c7f84828501610c46565b91505092915050565b610c9181610c25565b82525050565b600081519050919050565b600082825260208201905092915050565b60005b83811015610cd1578082015181840152602081019050610cb6565b60008484015250505050565b6000601f19601f8301169050919050565b6000610cf982610c97565b610d038185610ca2565b9350610d13818560208601610cb3565b610d1c81610cdd565b840191505092915050565b610d3081610b82565b82525050565b7f4e487b7100000000000000000000000000000000000000000000000000000000600052602160045260246000fd5b60038110610d7657610d75610d36565b5b50565b6000819050610d8782610d65565b919050565b6000610d9782610d79565b9050919050565b610da781610d8c565b82525050565b600060e083016000830151610dc56000860182610c88565b5060208301518482036020860152610ddd8282610cee565b9150506040830151610df26040860182610d27565b506060830151610e056060860182610c88565b506080830151610e186080860182610d9e565b5060a0830151610e2b60a0860182610d27565b5060c0830151610e3e60c0860182610c88565b508091505092915050565b60006020820190508181036000830152610e638184610dad565b905092915050565b600080fd5b600080fd5b7f4e487b7100000000000000000000000000000000000000000000000000000000600052604160045260246000fd5b610ead82610cdd565b810181811067ffffffffffffffff82111715610ecc57610ecb610e75565b5b80604052505050565b6000610edf610b4e565b9050610eeb8282610ea4565b919050565b600067ffffffffffffffff821115610f0b57610f0a610e75565b5b610f1482610cdd565b9050602081019050919050565b82818337600083830152505050565b6000610f43610f3e84610ef0565b610ed5565b905082815260208101848484011115610f5f57610f5e610e70565b5b610f6a848285610f21565b509392505050565b600082601f830112610f8757610f86610e6b565b5b8135610f97848260208601610f30565b91505092915050565b600060208284031215610fb657610fb5610b58565b5b600082013567ffffffffffffffff811115610fd457610fd3610b5d565b5b610fe084828501610f72565b91505092915050565b610ff281610c25565b82525050565b600060208201905061100d6000830184610fe9565b92915050565b60008115159050919050565b61102881611013565b811461103357600080fd5b50565b6000813590506110458161101f565b92915050565b6000806040838503121561106257611061610b58565b5b600061107085828601610c46565b925050602061108185828601611036565b9150509250929050565b600082825260208201905092915050565b60006110a782610c97565b6110b1818561108b565b93506110c1818560208601610cb3565b6110ca81610cdd565b840191505092915050565b6110de81610b82565b82525050565b6110ed81610d8c565b82525050565b600060e082019050611108600083018a610fe9565b818103602083015261111a818961109c565b905061112960408301886110d5565b6111366060830187610fe9565b61114360808301866110e4565b61115060a08301856110d5565b61115d60c0830184610fe9565b98975050505050505050565b60006020828403121561117f5761117e610b58565b5b600061118d84828501610bab565b91505092915050565b600581106111a7576111a6610d36565b5b50565b60008190506111b882611196565b919050565b60006111c8826111aa565b9050919050565b6111d8816111bd565b82525050565b60006020820190506111f360008301846111cf565b92915050565b61120281611013565b82525050565b600060408201905061121d60008301856111f9565b61122a6020830184610fe9565b9392505050565b7f4e487b7100000000000000000000000000000000000000000000000000000000600052602260045260246000fd5b6000600282049050600182168061127857607f821691505b60208210810361128b5761128a611231565b5b50919050565b7f496e76616c696420506170657220494400000000000000000000000000000000600082015250565b60006112c760108361108b565b91506112d282611291565b602082019050919050565b600060208201905081810360008301526112f6816112ba565b9050919050565b7f5061706572206e6f7420696e2070656e64696e67207374617475730000000000600082015250565b6000611333601b8361108b565b915061133e826112fd565b602082019050919050565b6000602082019050818103600083015261136281611326565b9050919050565b600060208201905061137e60008301846110e4565b92915050565b600081905092915050565b600061139a82610c97565b6113a48185611384565b93506113b4818560208601610cb3565b80840191505092915050565b60006113cc828461138f565b915081905092915050565b7f506170657220616c726561647920726567697374657265640000000000000000600082015250565b600061140d60188361108b565b9150611418826113d7565b602082019050919050565b6000602082019050818103600083015261143c81611400565b9050919050565b7f4e487b7100000000000000000000000000000000000000000000000000000000600052601160045260246000fd5b600061147d82610c25565b91507fffffffffffffffffffffffffffffffffffffffffffffffffffffffffffffffff82036114af576114ae611443565b5b600182019050919050565b60008190508160005260206000209050919050565b60006020601f8301049050919050565b600082821b905092915050565b60006008830261151c7fffffffffffffffffffffffffffffffffffffffffffffffffffffffffffffffff826114df565b61152686836114df565b95508019841693508086168417925050509392505050565b6000819050919050565b600061156361155e61155984610c25565b61153e565b610c25565b9050919050565b6000819050919050565b61157d83611548565b6115916115898261156a565b8484546114ec565b825550505050565b600090565b6115a6611599565b6115b1818484611574565b505050565b5b818110156115d5576115ca60008261159e565b6001810190506115b7565b5050565b601f82111561161a576115eb816114ba565b6115f4846114cf565b81016020851015611603578190505b61161761160f856114cf565b8301826115b6565b50505b505050565b600082821c905092915050565b600061163d6000198460080261161f565b1980831691505092915050565b6000611656838361162c565b9150826002028217905092915050565b61166f82610c97565b67ffffffffffffffff81111561168857611687610e75565b5b6116928254611260565b61169d8282856115d9565b600060209050601f8311600181146116d057600084156116be578287015190505b6116c8858261164a565b865550611730565b601f1984166116de866114ba565b60005b82811015611706578489015182556001820191506020850194506020810190506116e1565b86831015611723578489015161171f601f89168261162c565b8355505b6001600288020188555050505b505050505050565b60006020820190508181036000830152611752818461109c565b90509291505056fea264697066735822122003062eebcfa42943a993576de651c3987a4be847f53ecc5f07c397b485fa99fe64736f6c63430008130033",
  "linkReferences": {},
  "deployedLinkReferences": {}
}